{
	"RPS.sol": {
		"RPS": {
			"abi": [
				{
					"inputs": [],
					"name": "addPlayer",
					"outputs": [],
					"stateMutability": "payable",
					"type": "function"
				},
				{
					"inputs": [
						{
							"internalType": "uint256",
							"name": "",
							"type": "uint256"
						}
					],
					"name": "allowedPlayers",
					"outputs": [
						{
							"internalType": "address",
							"name": "",
							"type": "address"
						}
					],
					"stateMutability": "view",
					"type": "function"
				},
				{
					"inputs": [
						{
							"internalType": "uint256",
							"name": "choice",
							"type": "uint256"
						}
					],
					"name": "input",
					"outputs": [],
					"stateMutability": "nonpayable",
					"type": "function"
				},
				{
					"inputs": [],
					"name": "numInput",
					"outputs": [
						{
							"internalType": "uint256",
							"name": "",
							"type": "uint256"
						}
					],
					"stateMutability": "view",
					"type": "function"
				},
				{
					"inputs": [],
					"name": "numPlayer",
					"outputs": [
						{
							"internalType": "uint256",
							"name": "",
							"type": "uint256"
						}
					],
					"stateMutability": "view",
					"type": "function"
				},
				{
					"inputs": [
						{
							"internalType": "address",
							"name": "",
							"type": "address"
						}
					],
					"name": "player_choice",
					"outputs": [
						{
							"internalType": "uint256",
							"name": "",
							"type": "uint256"
						}
					],
					"stateMutability": "view",
					"type": "function"
				},
				{
					"inputs": [
						{
							"internalType": "address",
							"name": "",
							"type": "address"
						}
					],
					"name": "player_not_played",
					"outputs": [
						{
							"internalType": "bool",
							"name": "",
							"type": "bool"
						}
					],
					"stateMutability": "view",
					"type": "function"
				},
				{
					"inputs": [
						{
							"internalType": "uint256",
							"name": "",
							"type": "uint256"
						}
					],
					"name": "players",
					"outputs": [
						{
							"internalType": "address",
							"name": "",
							"type": "address"
						}
					],
					"stateMutability": "view",
					"type": "function"
				},
				{
					"inputs": [],
					"name": "reward",
					"outputs": [
						{
							"internalType": "uint256",
							"name": "",
							"type": "uint256"
						}
					],
					"stateMutability": "view",
					"type": "function"
				}
			],
			"devdoc": {
				"kind": "dev",
				"methods": {},
				"version": 1
			},
			"evm": {
				"assembly": "    /* \"RPS.sol\":76:2663  contract RPS {... */\n  mstore(0x40, 0x80)\n    /* \"RPS.sol\":120:121  0 */\n  0x00\n    /* \"RPS.sol\":96:121  uint public numPlayer = 0 */\n  dup1\n  sstore\n    /* \"RPS.sol\":149:150  0 */\n  0x00\n    /* \"RPS.sol\":128:150  uint public reward = 0 */\n  0x01\n  sstore\n    /* \"RPS.sol\":384:385  0 */\n  0x00\n    /* \"RPS.sol\":361:385  uint public numInput = 0 */\n  0x05\n  sstore\n    /* \"RPS.sol\":477:731  address[4] public allowedPlayers = [... */\n  mload(0x40)\n  dup1\n  0x80\n  add\n  0x40\n  mstore\n  dup1\n    /* \"RPS.sol\":523:565  0x5B38Da6a701c568545dCfcB03FcB875f56beddC4 */\n  0x5b38da6a701c568545dcfcb03fcb875f56beddc4\n    /* \"RPS.sol\":477:731  address[4] public allowedPlayers = [... */\n  0xffffffffffffffffffffffffffffffffffffffff\n  and\n  0xffffffffffffffffffffffffffffffffffffffff\n  and\n  dup2\n  mstore\n  0x20\n  add\n    /* \"RPS.sol\":576:618  0xAb8483F64d9C6d1EcF9b849Ae677dD3315835cb2 */\n  0xab8483f64d9c6d1ecf9b849ae677dd3315835cb2\n    /* \"RPS.sol\":477:731  address[4] public allowedPlayers = [... */\n  0xffffffffffffffffffffffffffffffffffffffff\n  and\n  0xffffffffffffffffffffffffffffffffffffffff\n  and\n  dup2\n  mstore\n  0x20\n  add\n    /* \"RPS.sol\":629:671  0x4B20993Bc481177ec7E8f571ceCaE8A9e22C02db */\n  0x4b20993bc481177ec7e8f571cecae8a9e22c02db\n    /* \"RPS.sol\":477:731  address[4] public allowedPlayers = [... */\n  0xffffffffffffffffffffffffffffffffffffffff\n  and\n  0xffffffffffffffffffffffffffffffffffffffff\n  and\n  dup2\n  mstore\n  0x20\n  add\n    /* \"RPS.sol\":682:724  0x78731D3Ca6b7E34aC0F824c42a7cC18A495cabaB */\n  0x78731d3ca6b7e34ac0f824c42a7cc18a495cabab\n    /* \"RPS.sol\":477:731  address[4] public allowedPlayers = [... */\n  0xffffffffffffffffffffffffffffffffffffffff\n  and\n  0xffffffffffffffffffffffffffffffffffffffff\n  and\n  dup2\n  mstore\n  pop\n  0x06\n  swap1\n  0x04\n  tag_1\n  swap3\n  swap2\n  swap1\n  tag_2\n  jump\t// in\ntag_1:\n  pop\n    /* \"RPS.sol\":76:2663  contract RPS {... */\n  callvalue\n  dup1\n  iszero\n  tag_3\n  jumpi\n  0x00\n  dup1\n  revert\ntag_3:\n  pop\n  jump(tag_4)\ntag_2:\n  dup3\n  0x04\n  dup2\n  add\n  swap3\n  dup3\n  iszero\n  tag_5\n  jumpi\n  swap2\n  0x20\n  mul\n  dup3\n  add\ntag_6:\n  dup3\n  dup2\n  gt\n  iszero\n  tag_7\n  jumpi\n  dup3\n  mload\n  dup3\n  exp(0x0100, 0x00)\n  dup2\n  sload\n  dup2\n  0xffffffffffffffffffffffffffffffffffffffff\n  mul\n  not\n  and\n  swap1\n  dup4\n  0xffffffffffffffffffffffffffffffffffffffff\n  and\n  mul\n  or\n  swap1\n  sstore\n  pop\n  swap2\n  0x20\n  add\n  swap2\n  swap1\n  0x01\n  add\n  swap1\n  jump(tag_6)\ntag_7:\ntag_5:\n  pop\n  swap1\n  pop\n  tag_8\n  swap2\n  swap1\n  tag_9\n  jump\t// in\ntag_8:\n  pop\n  swap1\n  jump\t// out\ntag_9:\ntag_10:\n  dup1\n  dup3\n  gt\n  iszero\n  tag_11\n  jumpi\n  0x00\n  dup2\n  0x00\n  swap1\n  sstore\n  pop\n  0x01\n  add\n  jump(tag_10)\ntag_11:\n  pop\n  swap1\n  jump\t// out\ntag_4:\n  dataSize(sub_0)\n  dup1\n  dataOffset(sub_0)\n  0x00\n  codecopy\n  0x00\n  return\nstop\n\nsub_0: assembly {\n        /* \"RPS.sol\":76:2663  contract RPS {... */\n      mstore(0x40, 0x80)\n      jumpi(tag_1, lt(calldatasize, 0x04))\n      shr(0xe0, calldataload(0x00))\n      dup1\n      0x90d5d0c3\n      gt\n      tag_11\n      jumpi\n      dup1\n      0x90d5d0c3\n      eq\n      tag_6\n      jumpi\n      dup1\n      0xa040478d\n      eq\n      tag_7\n      jumpi\n      dup1\n      0xce6e1c4e\n      eq\n      tag_8\n      jumpi\n      dup1\n      0xeabff710\n      eq\n      tag_9\n      jumpi\n      dup1\n      0xf71d96cb\n      eq\n      tag_10\n      jumpi\n      jump(tag_1)\n    tag_11:\n      dup1\n      0x086f7815\n      eq\n      tag_2\n      jumpi\n      dup1\n      0x190cf745\n      eq\n      tag_3\n      jumpi\n      dup1\n      0x228cb733\n      eq\n      tag_4\n      jumpi\n      dup1\n      0x27b5db8a\n      eq\n      tag_5\n      jumpi\n    tag_1:\n      0x00\n      dup1\n      revert\n        /* \"RPS.sol\":361:385  uint public numInput = 0 */\n    tag_2:\n      callvalue\n      dup1\n      iszero\n      tag_12\n      jumpi\n      0x00\n      dup1\n      revert\n    tag_12:\n      pop\n      tag_13\n      tag_14\n      jump\t// in\n    tag_13:\n      mload(0x40)\n      tag_15\n      swap2\n      swap1\n      tag_16\n      jump\t// in\n    tag_15:\n      mload(0x40)\n      dup1\n      swap2\n      sub\n      swap1\n      return\n        /* \"RPS.sol\":274:323  mapping(address => bool) public player_not_played */\n    tag_3:\n      callvalue\n      dup1\n      iszero\n      tag_17\n      jumpi\n      0x00\n      dup1\n      revert\n    tag_17:\n      pop\n      tag_18\n      0x04\n      dup1\n      calldatasize\n      sub\n      dup2\n      add\n      swap1\n      tag_19\n      swap2\n      swap1\n      tag_20\n      jump\t// in\n    tag_19:\n      tag_21\n      jump\t// in\n    tag_18:\n      mload(0x40)\n      tag_22\n      swap2\n      swap1\n      tag_23\n      jump\t// in\n    tag_22:\n      mload(0x40)\n      dup1\n      swap2\n      sub\n      swap1\n      return\n        /* \"RPS.sol\":128:150  uint public reward = 0 */\n    tag_4:\n      callvalue\n      dup1\n      iszero\n      tag_24\n      jumpi\n      0x00\n      dup1\n      revert\n    tag_24:\n      pop\n      tag_25\n      tag_26\n      jump\t// in\n    tag_25:\n      mload(0x40)\n      tag_27\n      swap2\n      swap1\n      tag_16\n      jump\t// in\n    tag_27:\n      mload(0x40)\n      dup1\n      swap2\n      sub\n      swap1\n      return\n        /* \"RPS.sol\":1082:1441  function addPlayer() public payable onlyAllowedPlayers {... */\n    tag_5:\n      tag_28\n      tag_29\n      jump\t// in\n    tag_28:\n      stop\n        /* \"RPS.sol\":96:121  uint public numPlayer = 0 */\n    tag_6:\n      callvalue\n      dup1\n      iszero\n      tag_30\n      jumpi\n      0x00\n      dup1\n      revert\n    tag_30:\n      pop\n      tag_31\n      tag_32\n      jump\t// in\n    tag_31:\n      mload(0x40)\n      tag_33\n      swap2\n      swap1\n      tag_16\n      jump\t// in\n    tag_33:\n      mload(0x40)\n      dup1\n      swap2\n      sub\n      swap1\n      return\n        /* \"RPS.sol\":157:203  mapping (address => uint) public player_choice */\n    tag_7:\n      callvalue\n      dup1\n      iszero\n      tag_34\n      jumpi\n      0x00\n      dup1\n      revert\n    tag_34:\n      pop\n      tag_35\n      0x04\n      dup1\n      calldatasize\n      sub\n      dup2\n      add\n      swap1\n      tag_36\n      swap2\n      swap1\n      tag_20\n      jump\t// in\n    tag_36:\n      tag_37\n      jump\t// in\n    tag_35:\n      mload(0x40)\n      tag_38\n      swap2\n      swap1\n      tag_16\n      jump\t// in\n    tag_38:\n      mload(0x40)\n      dup1\n      swap2\n      sub\n      swap1\n      return\n        /* \"RPS.sol\":1449:1877  function input(uint choice) public onlyAllowedPlayers {... */\n    tag_8:\n      callvalue\n      dup1\n      iszero\n      tag_39\n      jumpi\n      0x00\n      dup1\n      revert\n    tag_39:\n      pop\n      tag_40\n      0x04\n      dup1\n      calldatasize\n      sub\n      dup2\n      add\n      swap1\n      tag_41\n      swap2\n      swap1\n      tag_42\n      jump\t// in\n    tag_41:\n      tag_43\n      jump\t// in\n    tag_40:\n      stop\n        /* \"RPS.sol\":477:731  address[4] public allowedPlayers = [... */\n    tag_9:\n      callvalue\n      dup1\n      iszero\n      tag_44\n      jumpi\n      0x00\n      dup1\n      revert\n    tag_44:\n      pop\n      tag_45\n      0x04\n      dup1\n      calldatasize\n      sub\n      dup2\n      add\n      swap1\n      tag_46\n      swap2\n      swap1\n      tag_42\n      jump\t// in\n    tag_46:\n      tag_47\n      jump\t// in\n    tag_45:\n      mload(0x40)\n      tag_48\n      swap2\n      swap1\n      tag_49\n      jump\t// in\n    tag_48:\n      mload(0x40)\n      dup1\n      swap2\n      sub\n      swap1\n      return\n        /* \"RPS.sol\":330:354  address[] public players */\n    tag_10:\n      callvalue\n      dup1\n      iszero\n      tag_50\n      jumpi\n      0x00\n      dup1\n      revert\n    tag_50:\n      pop\n      tag_51\n      0x04\n      dup1\n      calldatasize\n      sub\n      dup2\n      add\n      swap1\n      tag_52\n      swap2\n      swap1\n      tag_42\n      jump\t// in\n    tag_52:\n      tag_53\n      jump\t// in\n    tag_51:\n      mload(0x40)\n      tag_54\n      swap2\n      swap1\n      tag_49\n      jump\t// in\n    tag_54:\n      mload(0x40)\n      dup1\n      swap2\n      sub\n      swap1\n      return\n        /* \"RPS.sol\":361:385  uint public numInput = 0 */\n    tag_14:\n      sload(0x05)\n      dup2\n      jump\t// out\n        /* \"RPS.sol\":274:323  mapping(address => bool) public player_not_played */\n    tag_21:\n      mstore(0x20, 0x03)\n      dup1\n      0x00\n      mstore\n      keccak256(0x00, 0x40)\n      0x00\n      swap2\n      pop\n      sload\n      swap1\n      0x0100\n      exp\n      swap1\n      div\n      0xff\n      and\n      dup2\n      jump\t// out\n        /* \"RPS.sol\":128:150  uint public reward = 0 */\n    tag_26:\n      sload(0x01)\n      dup2\n      jump\t// out\n        /* \"RPS.sol\":1082:1441  function addPlayer() public payable onlyAllowedPlayers {... */\n    tag_29:\n        /* \"RPS.sol\":781:795  bool isAllowed */\n      0x00\n        /* \"RPS.sol\":819:825  uint i */\n      dup1\n        /* \"RPS.sol\":814:1001  for (uint i = 0; i < allowedPlayers.length; i++) {... */\n    tag_56:\n        /* \"RPS.sol\":835:856  allowedPlayers.length */\n      0x04\n        /* \"RPS.sol\":831:832  i */\n      dup2\n        /* \"RPS.sol\":831:856  i < allowedPlayers.length */\n      lt\n        /* \"RPS.sol\":814:1001  for (uint i = 0; i < allowedPlayers.length; i++) {... */\n      iszero\n      tag_57\n      jumpi\n        /* \"RPS.sol\":896:910  allowedPlayers */\n      0x06\n        /* \"RPS.sol\":911:912  i */\n      dup2\n        /* \"RPS.sol\":896:913  allowedPlayers[i] */\n      0x04\n      dup2\n      lt\n      tag_59\n      jumpi\n      tag_60\n      tag_61\n      jump\t// in\n    tag_60:\n    tag_59:\n      add\n      0x00\n      swap1\n      sload\n      swap1\n      0x0100\n      exp\n      swap1\n      div\n      0xffffffffffffffffffffffffffffffffffffffff\n      and\n        /* \"RPS.sol\":882:913  msg.sender == allowedPlayers[i] */\n      0xffffffffffffffffffffffffffffffffffffffff\n      and\n        /* \"RPS.sol\":882:892  msg.sender */\n      caller\n        /* \"RPS.sol\":882:913  msg.sender == allowedPlayers[i] */\n      0xffffffffffffffffffffffffffffffffffffffff\n      and\n      sub\n        /* \"RPS.sol\":878:990  if (msg.sender == allowedPlayers[i]) {... */\n      tag_63\n      jumpi\n        /* \"RPS.sol\":946:950  true */\n      0x01\n        /* \"RPS.sol\":934:950  isAllowed = true */\n      swap2\n      pop\n        /* \"RPS.sol\":969:974  break */\n      jump(tag_57)\n        /* \"RPS.sol\":878:990  if (msg.sender == allowedPlayers[i]) {... */\n    tag_63:\n        /* \"RPS.sol\":858:861  i++ */\n      dup1\n      dup1\n      0x01\n      add\n      swap2\n      pop\n      pop\n        /* \"RPS.sol\":814:1001  for (uint i = 0; i < allowedPlayers.length; i++) {... */\n      jump(tag_56)\n    tag_57:\n      pop\n        /* \"RPS.sol\":1019:1028  isAllowed */\n      dup1\n        /* \"RPS.sol\":1011:1054  require(isAllowed, \"Not an allowed player\") */\n      tag_64\n      jumpi\n      mload(0x40)\n      0x08c379a000000000000000000000000000000000000000000000000000000000\n      dup2\n      mstore\n      0x04\n      add\n      tag_65\n      swap1\n      tag_66\n      jump\t// in\n    tag_65:\n      mload(0x40)\n      dup1\n      swap2\n      sub\n      swap1\n      revert\n    tag_64:\n        /* \"RPS.sol\":1168:1169  2 */\n      0x02\n        /* \"RPS.sol\":1156:1165  numPlayer */\n      sload(0x00)\n        /* \"RPS.sol\":1156:1169  numPlayer < 2 */\n      lt\n        /* \"RPS.sol\":1148:1170  require(numPlayer < 2) */\n      tag_68\n      jumpi\n      0x00\n      dup1\n      revert\n    tag_68:\n        /* \"RPS.sol\":1197:1198  0 */\n      0x00\n        /* \"RPS.sol\":1185:1194  numPlayer */\n      dup1\n      sload\n        /* \"RPS.sol\":1185:1198  numPlayer > 0 */\n      gt\n        /* \"RPS.sol\":1181:1260  if (numPlayer > 0) {... */\n      iszero\n      tag_69\n      jumpi\n        /* \"RPS.sol\":1237:1244  players */\n      0x04\n        /* \"RPS.sol\":1245:1246  0 */\n      0x00\n        /* \"RPS.sol\":1237:1247  players[0] */\n      dup2\n      sload\n      dup2\n      lt\n      tag_70\n      jumpi\n      tag_71\n      tag_61\n      jump\t// in\n    tag_71:\n    tag_70:\n      swap1\n      0x00\n      mstore\n      keccak256(0x00, 0x20)\n      add\n      0x00\n      swap1\n      sload\n      swap1\n      0x0100\n      exp\n      swap1\n      div\n      0xffffffffffffffffffffffffffffffffffffffff\n      and\n        /* \"RPS.sol\":1223:1247  msg.sender != players[0] */\n      0xffffffffffffffffffffffffffffffffffffffff\n      and\n        /* \"RPS.sol\":1223:1233  msg.sender */\n      caller\n        /* \"RPS.sol\":1223:1247  msg.sender != players[0] */\n      0xffffffffffffffffffffffffffffffffffffffff\n      and\n      sub\n        /* \"RPS.sol\":1215:1248  require(msg.sender != players[0]) */\n      tag_73\n      jumpi\n      0x00\n      dup1\n      revert\n    tag_73:\n        /* \"RPS.sol\":1181:1260  if (numPlayer > 0) {... */\n    tag_69:\n        /* \"RPS.sol\":1291:1298  1 ether */\n      0x0de0b6b3a7640000\n        /* \"RPS.sol\":1278:1287  msg.value */\n      callvalue\n        /* \"RPS.sol\":1278:1298  msg.value == 1 ether */\n      eq\n        /* \"RPS.sol\":1270:1299  require(msg.value == 1 ether) */\n      tag_74\n      jumpi\n      0x00\n      dup1\n      revert\n    tag_74:\n        /* \"RPS.sol\":1320:1329  msg.value */\n      callvalue\n        /* \"RPS.sol\":1310:1316  reward */\n      0x01\n      0x00\n        /* \"RPS.sol\":1310:1329  reward += msg.value */\n      dup3\n      dup3\n      sload\n      tag_75\n      swap2\n      swap1\n      tag_76\n      jump\t// in\n    tag_75:\n      swap3\n      pop\n      pop\n      dup2\n      swap1\n      sstore\n      pop\n        /* \"RPS.sol\":1372:1376  true */\n      0x01\n        /* \"RPS.sol\":1340:1357  player_not_played */\n      0x03\n        /* \"RPS.sol\":1340:1369  player_not_played[msg.sender] */\n      0x00\n        /* \"RPS.sol\":1358:1368  msg.sender */\n      caller\n        /* \"RPS.sol\":1340:1369  player_not_played[msg.sender] */\n      0xffffffffffffffffffffffffffffffffffffffff\n      and\n      0xffffffffffffffffffffffffffffffffffffffff\n      and\n      dup2\n      mstore\n      0x20\n      add\n      swap1\n      dup2\n      mstore\n      0x20\n      add\n      0x00\n      keccak256\n      0x00\n        /* \"RPS.sol\":1340:1376  player_not_played[msg.sender] = true */\n      0x0100\n      exp\n      dup2\n      sload\n      dup2\n      0xff\n      mul\n      not\n      and\n      swap1\n      dup4\n      iszero\n      iszero\n      mul\n      or\n      swap1\n      sstore\n      pop\n        /* \"RPS.sol\":1387:1394  players */\n      0x04\n        /* \"RPS.sol\":1400:1410  msg.sender */\n      caller\n        /* \"RPS.sol\":1387:1411  players.push(msg.sender) */\n      swap1\n      dup1\n      0x01\n      dup2\n      sload\n      add\n      dup1\n      dup3\n      sstore\n      dup1\n      swap2\n      pop\n      pop\n      0x01\n      swap1\n      sub\n      swap1\n      0x00\n      mstore\n      keccak256(0x00, 0x20)\n      add\n      0x00\n      swap1\n      swap2\n      swap1\n      swap2\n      swap1\n      swap2\n      0x0100\n      exp\n      dup2\n      sload\n      dup2\n      0xffffffffffffffffffffffffffffffffffffffff\n      mul\n      not\n      and\n      swap1\n      dup4\n      0xffffffffffffffffffffffffffffffffffffffff\n      and\n      mul\n      or\n      swap1\n      sstore\n      pop\n        /* \"RPS.sol\":1422:1431  numPlayer */\n      0x00\n      dup1\n        /* \"RPS.sol\":1422:1433  numPlayer++ */\n      dup2\n      sload\n      dup1\n      swap3\n      swap2\n      swap1\n      tag_78\n      swap1\n      tag_79\n      jump\t// in\n    tag_78:\n      swap2\n      swap1\n      pop\n      sstore\n      pop\n        /* \"RPS.sol\":770:1074  {... */\n      pop\n        /* \"RPS.sol\":1082:1441  function addPlayer() public payable onlyAllowedPlayers {... */\n      jump\t// out\n        /* \"RPS.sol\":96:121  uint public numPlayer = 0 */\n    tag_32:\n      sload(0x00)\n      dup2\n      jump\t// out\n        /* \"RPS.sol\":157:203  mapping (address => uint) public player_choice */\n    tag_37:\n      mstore(0x20, 0x02)\n      dup1\n      0x00\n      mstore\n      keccak256(0x00, 0x40)\n      0x00\n      swap2\n      pop\n      swap1\n      pop\n      sload\n      dup2\n      jump\t// out\n        /* \"RPS.sol\":1449:1877  function input(uint choice) public onlyAllowedPlayers {... */\n    tag_43:\n        /* \"RPS.sol\":781:795  bool isAllowed */\n      0x00\n        /* \"RPS.sol\":819:825  uint i */\n      dup1\n        /* \"RPS.sol\":814:1001  for (uint i = 0; i < allowedPlayers.length; i++) {... */\n    tag_81:\n        /* \"RPS.sol\":835:856  allowedPlayers.length */\n      0x04\n        /* \"RPS.sol\":831:832  i */\n      dup2\n        /* \"RPS.sol\":831:856  i < allowedPlayers.length */\n      lt\n        /* \"RPS.sol\":814:1001  for (uint i = 0; i < allowedPlayers.length; i++) {... */\n      iszero\n      tag_82\n      jumpi\n        /* \"RPS.sol\":896:910  allowedPlayers */\n      0x06\n        /* \"RPS.sol\":911:912  i */\n      dup2\n        /* \"RPS.sol\":896:913  allowedPlayers[i] */\n      0x04\n      dup2\n      lt\n      tag_84\n      jumpi\n      tag_85\n      tag_61\n      jump\t// in\n    tag_85:\n    tag_84:\n      add\n      0x00\n      swap1\n      sload\n      swap1\n      0x0100\n      exp\n      swap1\n      div\n      0xffffffffffffffffffffffffffffffffffffffff\n      and\n        /* \"RPS.sol\":882:913  msg.sender == allowedPlayers[i] */\n      0xffffffffffffffffffffffffffffffffffffffff\n      and\n        /* \"RPS.sol\":882:892  msg.sender */\n      caller\n        /* \"RPS.sol\":882:913  msg.sender == allowedPlayers[i] */\n      0xffffffffffffffffffffffffffffffffffffffff\n      and\n      sub\n        /* \"RPS.sol\":878:990  if (msg.sender == allowedPlayers[i]) {... */\n      tag_87\n      jumpi\n        /* \"RPS.sol\":946:950  true */\n      0x01\n        /* \"RPS.sol\":934:950  isAllowed = true */\n      swap2\n      pop\n        /* \"RPS.sol\":969:974  break */\n      jump(tag_82)\n        /* \"RPS.sol\":878:990  if (msg.sender == allowedPlayers[i]) {... */\n    tag_87:\n        /* \"RPS.sol\":858:861  i++ */\n      dup1\n      dup1\n      0x01\n      add\n      swap2\n      pop\n      pop\n        /* \"RPS.sol\":814:1001  for (uint i = 0; i < allowedPlayers.length; i++) {... */\n      jump(tag_81)\n    tag_82:\n      pop\n        /* \"RPS.sol\":1019:1028  isAllowed */\n      dup1\n        /* \"RPS.sol\":1011:1054  require(isAllowed, \"Not an allowed player\") */\n      tag_88\n      jumpi\n      mload(0x40)\n      0x08c379a000000000000000000000000000000000000000000000000000000000\n      dup2\n      mstore\n      0x04\n      add\n      tag_89\n      swap1\n      tag_66\n      jump\t// in\n    tag_89:\n      mload(0x40)\n      dup1\n      swap2\n      sub\n      swap1\n      revert\n    tag_88:\n        /* \"RPS.sol\":1535:1536  2 */\n      0x02\n        /* \"RPS.sol\":1522:1531  numPlayer */\n      sload(0x00)\n        /* \"RPS.sol\":1522:1536  numPlayer == 2 */\n      eq\n        /* \"RPS.sol\":1514:1537  require(numPlayer == 2) */\n      tag_91\n      jumpi\n      0x00\n      dup1\n      revert\n    tag_91:\n        /* \"RPS.sol\":1556:1573  player_not_played */\n      0x03\n        /* \"RPS.sol\":1556:1585  player_not_played[msg.sender] */\n      0x00\n        /* \"RPS.sol\":1574:1584  msg.sender */\n      caller\n        /* \"RPS.sol\":1556:1585  player_not_played[msg.sender] */\n      0xffffffffffffffffffffffffffffffffffffffff\n      and\n      0xffffffffffffffffffffffffffffffffffffffff\n      and\n      dup2\n      mstore\n      0x20\n      add\n      swap1\n      dup2\n      mstore\n      0x20\n      add\n      0x00\n      keccak256\n      0x00\n      swap1\n      sload\n      swap1\n      0x0100\n      exp\n      swap1\n      div\n      0xff\n      and\n        /* \"RPS.sol\":1548:1586  require(player_not_played[msg.sender]) */\n      tag_92\n      jumpi\n      0x00\n      dup1\n      revert\n    tag_92:\n        /* \"RPS.sol\":1615:1616  0 */\n      0x00\n        /* \"RPS.sol\":1605:1611  choice */\n      dup3\n        /* \"RPS.sol\":1605:1616  choice == 0 */\n      eq\n        /* \"RPS.sol\":1605:1631  choice == 0 || choice == 1 */\n      dup1\n      tag_93\n      jumpi\n      pop\n        /* \"RPS.sol\":1630:1631  1 */\n      0x01\n        /* \"RPS.sol\":1620:1626  choice */\n      dup3\n        /* \"RPS.sol\":1620:1631  choice == 1 */\n      eq\n        /* \"RPS.sol\":1605:1631  choice == 0 || choice == 1 */\n    tag_93:\n        /* \"RPS.sol\":1605:1646  choice == 0 || choice == 1 || choice == 2 */\n      dup1\n      tag_94\n      jumpi\n      pop\n        /* \"RPS.sol\":1645:1646  2 */\n      0x02\n        /* \"RPS.sol\":1635:1641  choice */\n      dup3\n        /* \"RPS.sol\":1635:1646  choice == 2 */\n      eq\n        /* \"RPS.sol\":1605:1646  choice == 0 || choice == 1 || choice == 2 */\n    tag_94:\n        /* \"RPS.sol\":1605:1661  choice == 0 || choice == 1 || choice == 2 || choice == 3 */\n      dup1\n      tag_95\n      jumpi\n      pop\n        /* \"RPS.sol\":1660:1661  3 */\n      0x03\n        /* \"RPS.sol\":1650:1656  choice */\n      dup3\n        /* \"RPS.sol\":1650:1661  choice == 3 */\n      eq\n        /* \"RPS.sol\":1605:1661  choice == 0 || choice == 1 || choice == 2 || choice == 3 */\n    tag_95:\n        /* \"RPS.sol\":1605:1676  choice == 0 || choice == 1 || choice == 2 || choice == 3 || choice == 4 */\n      dup1\n      tag_96\n      jumpi\n      pop\n        /* \"RPS.sol\":1675:1676  4 */\n      0x04\n        /* \"RPS.sol\":1665:1671  choice */\n      dup3\n        /* \"RPS.sol\":1665:1676  choice == 4 */\n      eq\n        /* \"RPS.sol\":1605:1676  choice == 0 || choice == 1 || choice == 2 || choice == 3 || choice == 4 */\n    tag_96:\n        /* \"RPS.sol\":1597:1677  require(choice == 0 || choice == 1 || choice == 2 || choice == 3 || choice == 4) */\n      tag_97\n      jumpi\n      0x00\n      dup1\n      revert\n    tag_97:\n        /* \"RPS.sol\":1716:1722  choice */\n      dup2\n        /* \"RPS.sol\":1688:1701  player_choice */\n      0x02\n        /* \"RPS.sol\":1688:1713  player_choice[msg.sender] */\n      0x00\n        /* \"RPS.sol\":1702:1712  msg.sender */\n      caller\n        /* \"RPS.sol\":1688:1713  player_choice[msg.sender] */\n      0xffffffffffffffffffffffffffffffffffffffff\n      and\n      0xffffffffffffffffffffffffffffffffffffffff\n      and\n      dup2\n      mstore\n      0x20\n      add\n      swap1\n      dup2\n      mstore\n      0x20\n      add\n      0x00\n      keccak256\n        /* \"RPS.sol\":1688:1722  player_choice[msg.sender] = choice */\n      dup2\n      swap1\n      sstore\n      pop\n        /* \"RPS.sol\":1765:1770  false */\n      0x00\n        /* \"RPS.sol\":1733:1750  player_not_played */\n      0x03\n        /* \"RPS.sol\":1733:1762  player_not_played[msg.sender] */\n      0x00\n        /* \"RPS.sol\":1751:1761  msg.sender */\n      caller\n        /* \"RPS.sol\":1733:1762  player_not_played[msg.sender] */\n      0xffffffffffffffffffffffffffffffffffffffff\n      and\n      0xffffffffffffffffffffffffffffffffffffffff\n      and\n      dup2\n      mstore\n      0x20\n      add\n      swap1\n      dup2\n      mstore\n      0x20\n      add\n      0x00\n      keccak256\n      0x00\n        /* \"RPS.sol\":1733:1770  player_not_played[msg.sender] = false */\n      0x0100\n      exp\n      dup2\n      sload\n      dup2\n      0xff\n      mul\n      not\n      and\n      swap1\n      dup4\n      iszero\n      iszero\n      mul\n      or\n      swap1\n      sstore\n      pop\n        /* \"RPS.sol\":1781:1789  numInput */\n      0x05\n      0x00\n        /* \"RPS.sol\":1781:1791  numInput++ */\n      dup2\n      sload\n      dup1\n      swap3\n      swap2\n      swap1\n      tag_98\n      swap1\n      tag_79\n      jump\t// in\n    tag_98:\n      swap2\n      swap1\n      pop\n      sstore\n      pop\n        /* \"RPS.sol\":1820:1821  2 */\n      0x02\n        /* \"RPS.sol\":1808:1816  numInput */\n      sload(0x05)\n        /* \"RPS.sol\":1808:1821  numInput == 2 */\n      sub\n        /* \"RPS.sol\":1804:1870  if (numInput == 2) {... */\n      tag_99\n      jumpi\n        /* \"RPS.sol\":1838:1858  _checkWinnerAndPay() */\n      tag_100\n        /* \"RPS.sol\":1838:1856  _checkWinnerAndPay */\n      tag_101\n        /* \"RPS.sol\":1838:1858  _checkWinnerAndPay() */\n      jump\t// in\n    tag_100:\n        /* \"RPS.sol\":1804:1870  if (numInput == 2) {... */\n    tag_99:\n        /* \"RPS.sol\":770:1074  {... */\n      pop\n        /* \"RPS.sol\":1449:1877  function input(uint choice) public onlyAllowedPlayers {... */\n      pop\n      jump\t// out\n        /* \"RPS.sol\":477:731  address[4] public allowedPlayers = [... */\n    tag_47:\n      0x06\n      dup2\n      0x04\n      dup2\n      lt\n      tag_102\n      jumpi\n      0x00\n      dup1\n      revert\n    tag_102:\n      add\n      0x00\n      swap2\n      pop\n      sload\n      swap1\n      0x0100\n      exp\n      swap1\n      div\n      0xffffffffffffffffffffffffffffffffffffffff\n      and\n      dup2\n      jump\t// out\n        /* \"RPS.sol\":330:354  address[] public players */\n    tag_53:\n      0x04\n      dup2\n      dup2\n      sload\n      dup2\n      lt\n      tag_104\n      jumpi\n      0x00\n      dup1\n      revert\n    tag_104:\n      swap1\n      0x00\n      mstore\n      keccak256(0x00, 0x20)\n      add\n      0x00\n      swap2\n      pop\n      sload\n      swap1\n      0x0100\n      exp\n      swap1\n      div\n      0xffffffffffffffffffffffffffffffffffffffff\n      and\n      dup2\n      jump\t// out\n        /* \"RPS.sol\":1885:2660  function _checkWinnerAndPay() private {... */\n    tag_101:\n        /* \"RPS.sol\":1934:1947  uint p0Choice */\n      0x00\n        /* \"RPS.sol\":1950:1963  player_choice */\n      0x02\n        /* \"RPS.sol\":1950:1975  player_choice[players[0]] */\n      0x00\n        /* \"RPS.sol\":1964:1971  players */\n      0x04\n        /* \"RPS.sol\":1972:1973  0 */\n      0x00\n        /* \"RPS.sol\":1964:1974  players[0] */\n      dup2\n      sload\n      dup2\n      lt\n      tag_107\n      jumpi\n      tag_108\n      tag_61\n      jump\t// in\n    tag_108:\n    tag_107:\n      swap1\n      0x00\n      mstore\n      keccak256(0x00, 0x20)\n      add\n      0x00\n      swap1\n      sload\n      swap1\n      0x0100\n      exp\n      swap1\n      div\n      0xffffffffffffffffffffffffffffffffffffffff\n      and\n        /* \"RPS.sol\":1950:1975  player_choice[players[0]] */\n      0xffffffffffffffffffffffffffffffffffffffff\n      and\n      0xffffffffffffffffffffffffffffffffffffffff\n      and\n      dup2\n      mstore\n      0x20\n      add\n      swap1\n      dup2\n      mstore\n      0x20\n      add\n      0x00\n      keccak256\n      sload\n        /* \"RPS.sol\":1934:1975  uint p0Choice = player_choice[players[0]] */\n      swap1\n      pop\n        /* \"RPS.sol\":1986:1999  uint p1Choice */\n      0x00\n        /* \"RPS.sol\":2002:2015  player_choice */\n      0x02\n        /* \"RPS.sol\":2002:2027  player_choice[players[1]] */\n      0x00\n        /* \"RPS.sol\":2016:2023  players */\n      0x04\n        /* \"RPS.sol\":2024:2025  1 */\n      0x01\n        /* \"RPS.sol\":2016:2026  players[1] */\n      dup2\n      sload\n      dup2\n      lt\n      tag_110\n      jumpi\n      tag_111\n      tag_61\n      jump\t// in\n    tag_111:\n    tag_110:\n      swap1\n      0x00\n      mstore\n      keccak256(0x00, 0x20)\n      add\n      0x00\n      swap1\n      sload\n      swap1\n      0x0100\n      exp\n      swap1\n      div\n      0xffffffffffffffffffffffffffffffffffffffff\n      and\n        /* \"RPS.sol\":2002:2027  player_choice[players[1]] */\n      0xffffffffffffffffffffffffffffffffffffffff\n      and\n      0xffffffffffffffffffffffffffffffffffffffff\n      and\n      dup2\n      mstore\n      0x20\n      add\n      swap1\n      dup2\n      mstore\n      0x20\n      add\n      0x00\n      keccak256\n      sload\n        /* \"RPS.sol\":1986:2027  uint p1Choice = player_choice[players[1]] */\n      swap1\n      pop\n        /* \"RPS.sol\":2038:2062  address payable account0 */\n      0x00\n        /* \"RPS.sol\":2073:2080  players */\n      0x04\n        /* \"RPS.sol\":2081:2082  0 */\n      0x00\n        /* \"RPS.sol\":2073:2083  players[0] */\n      dup2\n      sload\n      dup2\n      lt\n      tag_113\n      jumpi\n      tag_114\n      tag_61\n      jump\t// in\n    tag_114:\n    tag_113:\n      swap1\n      0x00\n      mstore\n      keccak256(0x00, 0x20)\n      add\n      0x00\n      swap1\n      sload\n      swap1\n      0x0100\n      exp\n      swap1\n      div\n      0xffffffffffffffffffffffffffffffffffffffff\n      and\n        /* \"RPS.sol\":2038:2084  address payable account0 = payable(players[0]) */\n      swap1\n      pop\n        /* \"RPS.sol\":2095:2119  address payable account1 */\n      0x00\n        /* \"RPS.sol\":2130:2137  players */\n      0x04\n        /* \"RPS.sol\":2138:2139  1 */\n      0x01\n        /* \"RPS.sol\":2130:2140  players[1] */\n      dup2\n      sload\n      dup2\n      lt\n      tag_116\n      jumpi\n      tag_117\n      tag_61\n      jump\t// in\n    tag_117:\n    tag_116:\n      swap1\n      0x00\n      mstore\n      keccak256(0x00, 0x20)\n      add\n      0x00\n      swap1\n      sload\n      swap1\n      0x0100\n      exp\n      swap1\n      div\n      0xffffffffffffffffffffffffffffffffffffffff\n      and\n        /* \"RPS.sol\":2095:2141  address payable account1 = payable(players[1]) */\n      swap1\n      pop\n        /* \"RPS.sol\":2178:2186  p1Choice */\n      dup3\n        /* \"RPS.sol\":2173:2174  5 */\n      0x05\n        /* \"RPS.sol\":2168:2169  1 */\n      0x01\n        /* \"RPS.sol\":2157:2165  p0Choice */\n      dup7\n        /* \"RPS.sol\":2157:2169  p0Choice + 1 */\n      tag_119\n      swap2\n      swap1\n      tag_76\n      jump\t// in\n    tag_119:\n        /* \"RPS.sol\":2156:2174  (p0Choice + 1) % 5 */\n      tag_120\n      swap2\n      swap1\n      tag_121\n      jump\t// in\n    tag_120:\n        /* \"RPS.sol\":2156:2186  (p0Choice + 1) % 5 == p1Choice */\n      sub\n        /* \"RPS.sol\":2152:2560  if ((p0Choice + 1) % 5 == p1Choice) {... */\n      tag_122\n      jumpi\n        /* \"RPS.sol\":2236:2244  account1 */\n      dup1\n        /* \"RPS.sol\":2236:2253  account1.transfer */\n      0xffffffffffffffffffffffffffffffffffffffff\n      and\n        /* \"RPS.sol\":2236:2261  account1.transfer(reward) */\n      0x08fc\n        /* \"RPS.sol\":2254:2260  reward */\n      sload(0x01)\n        /* \"RPS.sol\":2236:2261  account1.transfer(reward) */\n      swap1\n      dup2\n      iszero\n      mul\n      swap1\n      mload(0x40)\n      0x00\n      mload(0x40)\n      dup1\n      dup4\n      sub\n      dup2\n      dup6\n      dup9\n      dup9\n      call\n      swap4\n      pop\n      pop\n      pop\n      pop\n      iszero\n      dup1\n      iszero\n      tag_124\n      jumpi\n      returndatasize\n      0x00\n      dup1\n      returndatacopy\n      revert(0x00, returndatasize)\n    tag_124:\n      pop\n        /* \"RPS.sol\":2152:2560  if ((p0Choice + 1) % 5 == p1Choice) {... */\n      jump(tag_125)\n    tag_122:\n        /* \"RPS.sol\":2314:2322  p0Choice */\n      dup4\n        /* \"RPS.sol\":2309:2310  5 */\n      0x05\n        /* \"RPS.sol\":2304:2305  1 */\n      0x01\n        /* \"RPS.sol\":2293:2301  p1Choice */\n      dup6\n        /* \"RPS.sol\":2293:2305  p1Choice + 1 */\n      tag_126\n      swap2\n      swap1\n      tag_76\n      jump\t// in\n    tag_126:\n        /* \"RPS.sol\":2292:2310  (p1Choice + 1) % 5 */\n      tag_127\n      swap2\n      swap1\n      tag_121\n      jump\t// in\n    tag_127:\n        /* \"RPS.sol\":2292:2322  (p1Choice + 1) % 5 == p0Choice */\n      sub\n        /* \"RPS.sol\":2288:2560  if ((p1Choice + 1) % 5 == p0Choice) {... */\n      tag_128\n      jumpi\n        /* \"RPS.sol\":2372:2380  account0 */\n      dup2\n        /* \"RPS.sol\":2372:2389  account0.transfer */\n      0xffffffffffffffffffffffffffffffffffffffff\n      and\n        /* \"RPS.sol\":2372:2397  account0.transfer(reward) */\n      0x08fc\n        /* \"RPS.sol\":2390:2396  reward */\n      sload(0x01)\n        /* \"RPS.sol\":2372:2397  account0.transfer(reward) */\n      swap1\n      dup2\n      iszero\n      mul\n      swap1\n      mload(0x40)\n      0x00\n      mload(0x40)\n      dup1\n      dup4\n      sub\n      dup2\n      dup6\n      dup9\n      dup9\n      call\n      swap4\n      pop\n      pop\n      pop\n      pop\n      iszero\n      dup1\n      iszero\n      tag_130\n      jumpi\n      returndatasize\n      0x00\n      dup1\n      returndatacopy\n      revert(0x00, returndatasize)\n    tag_130:\n      pop\n        /* \"RPS.sol\":2288:2560  if ((p1Choice + 1) % 5 == p0Choice) {... */\n      jump(tag_131)\n    tag_128:\n        /* \"RPS.sol\":2475:2483  account0 */\n      dup2\n        /* \"RPS.sol\":2475:2492  account0.transfer */\n      0xffffffffffffffffffffffffffffffffffffffff\n      and\n        /* \"RPS.sol\":2475:2504  account0.transfer(reward / 2) */\n      0x08fc\n        /* \"RPS.sol\":2502:2503  2 */\n      0x02\n        /* \"RPS.sol\":2493:2499  reward */\n      sload(0x01)\n        /* \"RPS.sol\":2493:2503  reward / 2 */\n      tag_132\n      swap2\n      swap1\n      tag_133\n      jump\t// in\n    tag_132:\n        /* \"RPS.sol\":2475:2504  account0.transfer(reward / 2) */\n      swap1\n      dup2\n      iszero\n      mul\n      swap1\n      mload(0x40)\n      0x00\n      mload(0x40)\n      dup1\n      dup4\n      sub\n      dup2\n      dup6\n      dup9\n      dup9\n      call\n      swap4\n      pop\n      pop\n      pop\n      pop\n      iszero\n      dup1\n      iszero\n      tag_135\n      jumpi\n      returndatasize\n      0x00\n      dup1\n      returndatacopy\n      revert(0x00, returndatasize)\n    tag_135:\n      pop\n        /* \"RPS.sol\":2519:2527  account1 */\n      dup1\n        /* \"RPS.sol\":2519:2536  account1.transfer */\n      0xffffffffffffffffffffffffffffffffffffffff\n      and\n        /* \"RPS.sol\":2519:2548  account1.transfer(reward / 2) */\n      0x08fc\n        /* \"RPS.sol\":2546:2547  2 */\n      0x02\n        /* \"RPS.sol\":2537:2543  reward */\n      sload(0x01)\n        /* \"RPS.sol\":2537:2547  reward / 2 */\n      tag_136\n      swap2\n      swap1\n      tag_133\n      jump\t// in\n    tag_136:\n        /* \"RPS.sol\":2519:2548  account1.transfer(reward / 2) */\n      swap1\n      dup2\n      iszero\n      mul\n      swap1\n      mload(0x40)\n      0x00\n      mload(0x40)\n      dup1\n      dup4\n      sub\n      dup2\n      dup6\n      dup9\n      dup9\n      call\n      swap4\n      pop\n      pop\n      pop\n      pop\n      iszero\n      dup1\n      iszero\n      tag_138\n      jumpi\n      returndatasize\n      0x00\n      dup1\n      returndatacopy\n      revert(0x00, returndatasize)\n    tag_138:\n      pop\n        /* \"RPS.sol\":2288:2560  if ((p1Choice + 1) % 5 == p0Choice) {... */\n    tag_131:\n        /* \"RPS.sol\":2152:2560  if ((p0Choice + 1) % 5 == p1Choice) {... */\n    tag_125:\n        /* \"RPS.sol\":2577:2584  players */\n      0x04\n      0x00\n        /* \"RPS.sol\":2570:2584  delete players */\n      tag_139\n      swap2\n      swap1\n      tag_140\n      jump\t// in\n    tag_139:\n        /* \"RPS.sol\":2607:2608  0 */\n      0x00\n        /* \"RPS.sol\":2595:2604  numPlayer */\n      dup1\n        /* \"RPS.sol\":2595:2608  numPlayer = 0 */\n      dup2\n      swap1\n      sstore\n      pop\n        /* \"RPS.sol\":2630:2631  0 */\n      0x00\n        /* \"RPS.sol\":2619:2627  numInput */\n      0x05\n        /* \"RPS.sol\":2619:2631  numInput = 0 */\n      dup2\n      swap1\n      sstore\n      pop\n        /* \"RPS.sol\":2651:2652  0 */\n      0x00\n        /* \"RPS.sol\":2642:2648  reward */\n      0x01\n        /* \"RPS.sol\":2642:2652  reward = 0 */\n      dup2\n      swap1\n      sstore\n      pop\n        /* \"RPS.sol\":1923:2660  {... */\n      pop\n      pop\n      pop\n      pop\n        /* \"RPS.sol\":1885:2660  function _checkWinnerAndPay() private {... */\n      jump\t// out\n    tag_140:\n      pop\n      dup1\n      sload\n      0x00\n      dup3\n      sstore\n      swap1\n      0x00\n      mstore\n      keccak256(0x00, 0x20)\n      swap1\n      dup2\n      add\n      swap1\n      tag_142\n      swap2\n      swap1\n      tag_143\n      jump\t// in\n    tag_142:\n      pop\n      jump\t// out\n    tag_143:\n    tag_144:\n      dup1\n      dup3\n      gt\n      iszero\n      tag_145\n      jumpi\n      0x00\n      dup2\n      0x00\n      swap1\n      sstore\n      pop\n      0x01\n      add\n      jump(tag_144)\n    tag_145:\n      pop\n      swap1\n      jump\t// out\n        /* \"#utility.yul\":7:84   */\n    tag_146:\n        /* \"#utility.yul\":44:51   */\n      0x00\n        /* \"#utility.yul\":73:78   */\n      dup2\n        /* \"#utility.yul\":62:78   */\n      swap1\n      pop\n        /* \"#utility.yul\":7:84   */\n      swap2\n      swap1\n      pop\n      jump\t// out\n        /* \"#utility.yul\":90:208   */\n    tag_147:\n        /* \"#utility.yul\":177:201   */\n      tag_168\n        /* \"#utility.yul\":195:200   */\n      dup2\n        /* \"#utility.yul\":177:201   */\n      tag_146\n      jump\t// in\n    tag_168:\n        /* \"#utility.yul\":172:175   */\n      dup3\n        /* \"#utility.yul\":165:202   */\n      mstore\n        /* \"#utility.yul\":90:208   */\n      pop\n      pop\n      jump\t// out\n        /* \"#utility.yul\":214:436   */\n    tag_16:\n        /* \"#utility.yul\":307:311   */\n      0x00\n        /* \"#utility.yul\":345:347   */\n      0x20\n        /* \"#utility.yul\":334:343   */\n      dup3\n        /* \"#utility.yul\":330:348   */\n      add\n        /* \"#utility.yul\":322:348   */\n      swap1\n      pop\n        /* \"#utility.yul\":358:429   */\n      tag_170\n        /* \"#utility.yul\":426:427   */\n      0x00\n        /* \"#utility.yul\":415:424   */\n      dup4\n        /* \"#utility.yul\":411:428   */\n      add\n        /* \"#utility.yul\":402:408   */\n      dup5\n        /* \"#utility.yul\":358:429   */\n      tag_147\n      jump\t// in\n    tag_170:\n        /* \"#utility.yul\":214:436   */\n      swap3\n      swap2\n      pop\n      pop\n      jump\t// out\n        /* \"#utility.yul\":523:640   */\n    tag_149:\n        /* \"#utility.yul\":632:633   */\n      0x00\n        /* \"#utility.yul\":629:630   */\n      dup1\n        /* \"#utility.yul\":622:634   */\n      revert\n        /* \"#utility.yul\":769:895   */\n    tag_151:\n        /* \"#utility.yul\":806:813   */\n      0x00\n        /* \"#utility.yul\":846:888   */\n      0xffffffffffffffffffffffffffffffffffffffff\n        /* \"#utility.yul\":839:844   */\n      dup3\n        /* \"#utility.yul\":835:889   */\n      and\n        /* \"#utility.yul\":824:889   */\n      swap1\n      pop\n        /* \"#utility.yul\":769:895   */\n      swap2\n      swap1\n      pop\n      jump\t// out\n        /* \"#utility.yul\":901:997   */\n    tag_152:\n        /* \"#utility.yul\":938:945   */\n      0x00\n        /* \"#utility.yul\":967:991   */\n      tag_176\n        /* \"#utility.yul\":985:990   */\n      dup3\n        /* \"#utility.yul\":967:991   */\n      tag_151\n      jump\t// in\n    tag_176:\n        /* \"#utility.yul\":956:991   */\n      swap1\n      pop\n        /* \"#utility.yul\":901:997   */\n      swap2\n      swap1\n      pop\n      jump\t// out\n        /* \"#utility.yul\":1003:1125   */\n    tag_153:\n        /* \"#utility.yul\":1076:1100   */\n      tag_178\n        /* \"#utility.yul\":1094:1099   */\n      dup2\n        /* \"#utility.yul\":1076:1100   */\n      tag_152\n      jump\t// in\n    tag_178:\n        /* \"#utility.yul\":1069:1074   */\n      dup2\n        /* \"#utility.yul\":1066:1101   */\n      eq\n        /* \"#utility.yul\":1056:1119   */\n      tag_179\n      jumpi\n        /* \"#utility.yul\":1115:1116   */\n      0x00\n        /* \"#utility.yul\":1112:1113   */\n      dup1\n        /* \"#utility.yul\":1105:1117   */\n      revert\n        /* \"#utility.yul\":1056:1119   */\n    tag_179:\n        /* \"#utility.yul\":1003:1125   */\n      pop\n      jump\t// out\n        /* \"#utility.yul\":1131:1270   */\n    tag_154:\n        /* \"#utility.yul\":1177:1182   */\n      0x00\n        /* \"#utility.yul\":1215:1221   */\n      dup2\n        /* \"#utility.yul\":1202:1222   */\n      calldataload\n        /* \"#utility.yul\":1193:1222   */\n      swap1\n      pop\n        /* \"#utility.yul\":1231:1264   */\n      tag_181\n        /* \"#utility.yul\":1258:1263   */\n      dup2\n        /* \"#utility.yul\":1231:1264   */\n      tag_153\n      jump\t// in\n    tag_181:\n        /* \"#utility.yul\":1131:1270   */\n      swap3\n      swap2\n      pop\n      pop\n      jump\t// out\n        /* \"#utility.yul\":1276:1605   */\n    tag_20:\n        /* \"#utility.yul\":1335:1341   */\n      0x00\n        /* \"#utility.yul\":1384:1386   */\n      0x20\n        /* \"#utility.yul\":1372:1381   */\n      dup3\n        /* \"#utility.yul\":1363:1370   */\n      dup5\n        /* \"#utility.yul\":1359:1382   */\n      sub\n        /* \"#utility.yul\":1355:1387   */\n      slt\n        /* \"#utility.yul\":1352:1471   */\n      iszero\n      tag_183\n      jumpi\n        /* \"#utility.yul\":1390:1469   */\n      tag_184\n      tag_149\n      jump\t// in\n    tag_184:\n        /* \"#utility.yul\":1352:1471   */\n    tag_183:\n        /* \"#utility.yul\":1510:1511   */\n      0x00\n        /* \"#utility.yul\":1535:1588   */\n      tag_185\n        /* \"#utility.yul\":1580:1587   */\n      dup5\n        /* \"#utility.yul\":1571:1577   */\n      dup3\n        /* \"#utility.yul\":1560:1569   */\n      dup6\n        /* \"#utility.yul\":1556:1578   */\n      add\n        /* \"#utility.yul\":1535:1588   */\n      tag_154\n      jump\t// in\n    tag_185:\n        /* \"#utility.yul\":1525:1588   */\n      swap2\n      pop\n        /* \"#utility.yul\":1481:1598   */\n      pop\n        /* \"#utility.yul\":1276:1605   */\n      swap3\n      swap2\n      pop\n      pop\n      jump\t// out\n        /* \"#utility.yul\":1611:1701   */\n    tag_155:\n        /* \"#utility.yul\":1645:1652   */\n      0x00\n        /* \"#utility.yul\":1688:1693   */\n      dup2\n        /* \"#utility.yul\":1681:1694   */\n      iszero\n        /* \"#utility.yul\":1674:1695   */\n      iszero\n        /* \"#utility.yul\":1663:1695   */\n      swap1\n      pop\n        /* \"#utility.yul\":1611:1701   */\n      swap2\n      swap1\n      pop\n      jump\t// out\n        /* \"#utility.yul\":1707:1816   */\n    tag_156:\n        /* \"#utility.yul\":1788:1809   */\n      tag_188\n        /* \"#utility.yul\":1803:1808   */\n      dup2\n        /* \"#utility.yul\":1788:1809   */\n      tag_155\n      jump\t// in\n    tag_188:\n        /* \"#utility.yul\":1783:1786   */\n      dup3\n        /* \"#utility.yul\":1776:1810   */\n      mstore\n        /* \"#utility.yul\":1707:1816   */\n      pop\n      pop\n      jump\t// out\n        /* \"#utility.yul\":1822:2032   */\n    tag_23:\n        /* \"#utility.yul\":1909:1913   */\n      0x00\n        /* \"#utility.yul\":1947:1949   */\n      0x20\n        /* \"#utility.yul\":1936:1945   */\n      dup3\n        /* \"#utility.yul\":1932:1950   */\n      add\n        /* \"#utility.yul\":1924:1950   */\n      swap1\n      pop\n        /* \"#utility.yul\":1960:2025   */\n      tag_190\n        /* \"#utility.yul\":2022:2023   */\n      0x00\n        /* \"#utility.yul\":2011:2020   */\n      dup4\n        /* \"#utility.yul\":2007:2024   */\n      add\n        /* \"#utility.yul\":1998:2004   */\n      dup5\n        /* \"#utility.yul\":1960:2025   */\n      tag_156\n      jump\t// in\n    tag_190:\n        /* \"#utility.yul\":1822:2032   */\n      swap3\n      swap2\n      pop\n      pop\n      jump\t// out\n        /* \"#utility.yul\":2038:2160   */\n    tag_157:\n        /* \"#utility.yul\":2111:2135   */\n      tag_192\n        /* \"#utility.yul\":2129:2134   */\n      dup2\n        /* \"#utility.yul\":2111:2135   */\n      tag_146\n      jump\t// in\n    tag_192:\n        /* \"#utility.yul\":2104:2109   */\n      dup2\n        /* \"#utility.yul\":2101:2136   */\n      eq\n        /* \"#utility.yul\":2091:2154   */\n      tag_193\n      jumpi\n        /* \"#utility.yul\":2150:2151   */\n      0x00\n        /* \"#utility.yul\":2147:2148   */\n      dup1\n        /* \"#utility.yul\":2140:2152   */\n      revert\n        /* \"#utility.yul\":2091:2154   */\n    tag_193:\n        /* \"#utility.yul\":2038:2160   */\n      pop\n      jump\t// out\n        /* \"#utility.yul\":2166:2305   */\n    tag_158:\n        /* \"#utility.yul\":2212:2217   */\n      0x00\n        /* \"#utility.yul\":2250:2256   */\n      dup2\n        /* \"#utility.yul\":2237:2257   */\n      calldataload\n        /* \"#utility.yul\":2228:2257   */\n      swap1\n      pop\n        /* \"#utility.yul\":2266:2299   */\n      tag_195\n        /* \"#utility.yul\":2293:2298   */\n      dup2\n        /* \"#utility.yul\":2266:2299   */\n      tag_157\n      jump\t// in\n    tag_195:\n        /* \"#utility.yul\":2166:2305   */\n      swap3\n      swap2\n      pop\n      pop\n      jump\t// out\n        /* \"#utility.yul\":2311:2640   */\n    tag_42:\n        /* \"#utility.yul\":2370:2376   */\n      0x00\n        /* \"#utility.yul\":2419:2421   */\n      0x20\n        /* \"#utility.yul\":2407:2416   */\n      dup3\n        /* \"#utility.yul\":2398:2405   */\n      dup5\n        /* \"#utility.yul\":2394:2417   */\n      sub\n        /* \"#utility.yul\":2390:2422   */\n      slt\n        /* \"#utility.yul\":2387:2506   */\n      iszero\n      tag_197\n      jumpi\n        /* \"#utility.yul\":2425:2504   */\n      tag_198\n      tag_149\n      jump\t// in\n    tag_198:\n        /* \"#utility.yul\":2387:2506   */\n    tag_197:\n        /* \"#utility.yul\":2545:2546   */\n      0x00\n        /* \"#utility.yul\":2570:2623   */\n      tag_199\n        /* \"#utility.yul\":2615:2622   */\n      dup5\n        /* \"#utility.yul\":2606:2612   */\n      dup3\n        /* \"#utility.yul\":2595:2604   */\n      dup6\n        /* \"#utility.yul\":2591:2613   */\n      add\n        /* \"#utility.yul\":2570:2623   */\n      tag_158\n      jump\t// in\n    tag_199:\n        /* \"#utility.yul\":2560:2623   */\n      swap2\n      pop\n        /* \"#utility.yul\":2516:2633   */\n      pop\n        /* \"#utility.yul\":2311:2640   */\n      swap3\n      swap2\n      pop\n      pop\n      jump\t// out\n        /* \"#utility.yul\":2646:2764   */\n    tag_159:\n        /* \"#utility.yul\":2733:2757   */\n      tag_201\n        /* \"#utility.yul\":2751:2756   */\n      dup2\n        /* \"#utility.yul\":2733:2757   */\n      tag_152\n      jump\t// in\n    tag_201:\n        /* \"#utility.yul\":2728:2731   */\n      dup3\n        /* \"#utility.yul\":2721:2758   */\n      mstore\n        /* \"#utility.yul\":2646:2764   */\n      pop\n      pop\n      jump\t// out\n        /* \"#utility.yul\":2770:2992   */\n    tag_49:\n        /* \"#utility.yul\":2863:2867   */\n      0x00\n        /* \"#utility.yul\":2901:2903   */\n      0x20\n        /* \"#utility.yul\":2890:2899   */\n      dup3\n        /* \"#utility.yul\":2886:2904   */\n      add\n        /* \"#utility.yul\":2878:2904   */\n      swap1\n      pop\n        /* \"#utility.yul\":2914:2985   */\n      tag_203\n        /* \"#utility.yul\":2982:2983   */\n      0x00\n        /* \"#utility.yul\":2971:2980   */\n      dup4\n        /* \"#utility.yul\":2967:2984   */\n      add\n        /* \"#utility.yul\":2958:2964   */\n      dup5\n        /* \"#utility.yul\":2914:2985   */\n      tag_159\n      jump\t// in\n    tag_203:\n        /* \"#utility.yul\":2770:2992   */\n      swap3\n      swap2\n      pop\n      pop\n      jump\t// out\n        /* \"#utility.yul\":2998:3178   */\n    tag_61:\n        /* \"#utility.yul\":3046:3123   */\n      0x4e487b7100000000000000000000000000000000000000000000000000000000\n        /* \"#utility.yul\":3043:3044   */\n      0x00\n        /* \"#utility.yul\":3036:3124   */\n      mstore\n        /* \"#utility.yul\":3143:3147   */\n      0x32\n        /* \"#utility.yul\":3140:3141   */\n      0x04\n        /* \"#utility.yul\":3133:3148   */\n      mstore\n        /* \"#utility.yul\":3167:3171   */\n      0x24\n        /* \"#utility.yul\":3164:3165   */\n      0x00\n        /* \"#utility.yul\":3157:3172   */\n      revert\n        /* \"#utility.yul\":3184:3353   */\n    tag_160:\n        /* \"#utility.yul\":3268:3279   */\n      0x00\n        /* \"#utility.yul\":3302:3308   */\n      dup3\n        /* \"#utility.yul\":3297:3300   */\n      dup3\n        /* \"#utility.yul\":3290:3309   */\n      mstore\n        /* \"#utility.yul\":3342:3346   */\n      0x20\n        /* \"#utility.yul\":3337:3340   */\n      dup3\n        /* \"#utility.yul\":3333:3347   */\n      add\n        /* \"#utility.yul\":3318:3347   */\n      swap1\n      pop\n        /* \"#utility.yul\":3184:3353   */\n      swap3\n      swap2\n      pop\n      pop\n      jump\t// out\n        /* \"#utility.yul\":3359:3530   */\n    tag_161:\n        /* \"#utility.yul\":3499:3522   */\n      0x4e6f7420616e20616c6c6f77656420706c617965720000000000000000000000\n        /* \"#utility.yul\":3495:3496   */\n      0x00\n        /* \"#utility.yul\":3487:3493   */\n      dup3\n        /* \"#utility.yul\":3483:3497   */\n      add\n        /* \"#utility.yul\":3476:3523   */\n      mstore\n        /* \"#utility.yul\":3359:3530   */\n      pop\n      jump\t// out\n        /* \"#utility.yul\":3536:3902   */\n    tag_162:\n        /* \"#utility.yul\":3678:3681   */\n      0x00\n        /* \"#utility.yul\":3699:3766   */\n      tag_208\n        /* \"#utility.yul\":3763:3765   */\n      0x15\n        /* \"#utility.yul\":3758:3761   */\n      dup4\n        /* \"#utility.yul\":3699:3766   */\n      tag_160\n      jump\t// in\n    tag_208:\n        /* \"#utility.yul\":3692:3766   */\n      swap2\n      pop\n        /* \"#utility.yul\":3775:3868   */\n      tag_209\n        /* \"#utility.yul\":3864:3867   */\n      dup3\n        /* \"#utility.yul\":3775:3868   */\n      tag_161\n      jump\t// in\n    tag_209:\n        /* \"#utility.yul\":3893:3895   */\n      0x20\n        /* \"#utility.yul\":3888:3891   */\n      dup3\n        /* \"#utility.yul\":3884:3896   */\n      add\n        /* \"#utility.yul\":3877:3896   */\n      swap1\n      pop\n        /* \"#utility.yul\":3536:3902   */\n      swap2\n      swap1\n      pop\n      jump\t// out\n        /* \"#utility.yul\":3908:4327   */\n    tag_66:\n        /* \"#utility.yul\":4074:4078   */\n      0x00\n        /* \"#utility.yul\":4112:4114   */\n      0x20\n        /* \"#utility.yul\":4101:4110   */\n      dup3\n        /* \"#utility.yul\":4097:4115   */\n      add\n        /* \"#utility.yul\":4089:4115   */\n      swap1\n      pop\n        /* \"#utility.yul\":4161:4170   */\n      dup2\n        /* \"#utility.yul\":4155:4159   */\n      dup2\n        /* \"#utility.yul\":4151:4171   */\n      sub\n        /* \"#utility.yul\":4147:4148   */\n      0x00\n        /* \"#utility.yul\":4136:4145   */\n      dup4\n        /* \"#utility.yul\":4132:4149   */\n      add\n        /* \"#utility.yul\":4125:4172   */\n      mstore\n        /* \"#utility.yul\":4189:4320   */\n      tag_211\n        /* \"#utility.yul\":4315:4319   */\n      dup2\n        /* \"#utility.yul\":4189:4320   */\n      tag_162\n      jump\t// in\n    tag_211:\n        /* \"#utility.yul\":4181:4320   */\n      swap1\n      pop\n        /* \"#utility.yul\":3908:4327   */\n      swap2\n      swap1\n      pop\n      jump\t// out\n        /* \"#utility.yul\":4333:4513   */\n    tag_163:\n        /* \"#utility.yul\":4381:4458   */\n      0x4e487b7100000000000000000000000000000000000000000000000000000000\n        /* \"#utility.yul\":4378:4379   */\n      0x00\n        /* \"#utility.yul\":4371:4459   */\n      mstore\n        /* \"#utility.yul\":4478:4482   */\n      0x11\n        /* \"#utility.yul\":4475:4476   */\n      0x04\n        /* \"#utility.yul\":4468:4483   */\n      mstore\n        /* \"#utility.yul\":4502:4506   */\n      0x24\n        /* \"#utility.yul\":4499:4500   */\n      0x00\n        /* \"#utility.yul\":4492:4507   */\n      revert\n        /* \"#utility.yul\":4519:4710   */\n    tag_76:\n        /* \"#utility.yul\":4559:4562   */\n      0x00\n        /* \"#utility.yul\":4578:4598   */\n      tag_214\n        /* \"#utility.yul\":4596:4597   */\n      dup3\n        /* \"#utility.yul\":4578:4598   */\n      tag_146\n      jump\t// in\n    tag_214:\n        /* \"#utility.yul\":4573:4598   */\n      swap2\n      pop\n        /* \"#utility.yul\":4612:4632   */\n      tag_215\n        /* \"#utility.yul\":4630:4631   */\n      dup4\n        /* \"#utility.yul\":4612:4632   */\n      tag_146\n      jump\t// in\n    tag_215:\n        /* \"#utility.yul\":4607:4632   */\n      swap3\n      pop\n        /* \"#utility.yul\":4655:4656   */\n      dup3\n        /* \"#utility.yul\":4652:4653   */\n      dup3\n        /* \"#utility.yul\":4648:4657   */\n      add\n        /* \"#utility.yul\":4641:4657   */\n      swap1\n      pop\n        /* \"#utility.yul\":4676:4679   */\n      dup1\n        /* \"#utility.yul\":4673:4674   */\n      dup3\n        /* \"#utility.yul\":4670:4680   */\n      gt\n        /* \"#utility.yul\":4667:4703   */\n      iszero\n      tag_216\n      jumpi\n        /* \"#utility.yul\":4683:4701   */\n      tag_217\n      tag_163\n      jump\t// in\n    tag_217:\n        /* \"#utility.yul\":4667:4703   */\n    tag_216:\n        /* \"#utility.yul\":4519:4710   */\n      swap3\n      swap2\n      pop\n      pop\n      jump\t// out\n        /* \"#utility.yul\":4716:4949   */\n    tag_79:\n        /* \"#utility.yul\":4755:4758   */\n      0x00\n        /* \"#utility.yul\":4778:4802   */\n      tag_219\n        /* \"#utility.yul\":4796:4801   */\n      dup3\n        /* \"#utility.yul\":4778:4802   */\n      tag_146\n      jump\t// in\n    tag_219:\n        /* \"#utility.yul\":4769:4802   */\n      swap2\n      pop\n        /* \"#utility.yul\":4824:4890   */\n      0xffffffffffffffffffffffffffffffffffffffffffffffffffffffffffffffff\n        /* \"#utility.yul\":4817:4822   */\n      dup3\n        /* \"#utility.yul\":4814:4891   */\n      sub\n        /* \"#utility.yul\":4811:4914   */\n      tag_220\n      jumpi\n        /* \"#utility.yul\":4894:4912   */\n      tag_221\n      tag_163\n      jump\t// in\n    tag_221:\n        /* \"#utility.yul\":4811:4914   */\n    tag_220:\n        /* \"#utility.yul\":4941:4942   */\n      0x01\n        /* \"#utility.yul\":4934:4939   */\n      dup3\n        /* \"#utility.yul\":4930:4943   */\n      add\n        /* \"#utility.yul\":4923:4943   */\n      swap1\n      pop\n        /* \"#utility.yul\":4716:4949   */\n      swap2\n      swap1\n      pop\n      jump\t// out\n        /* \"#utility.yul\":4955:5135   */\n    tag_164:\n        /* \"#utility.yul\":5003:5080   */\n      0x4e487b7100000000000000000000000000000000000000000000000000000000\n        /* \"#utility.yul\":5000:5001   */\n      0x00\n        /* \"#utility.yul\":4993:5081   */\n      mstore\n        /* \"#utility.yul\":5100:5104   */\n      0x12\n        /* \"#utility.yul\":5097:5098   */\n      0x04\n        /* \"#utility.yul\":5090:5105   */\n      mstore\n        /* \"#utility.yul\":5124:5128   */\n      0x24\n        /* \"#utility.yul\":5121:5122   */\n      0x00\n        /* \"#utility.yul\":5114:5129   */\n      revert\n        /* \"#utility.yul\":5141:5317   */\n    tag_121:\n        /* \"#utility.yul\":5173:5174   */\n      0x00\n        /* \"#utility.yul\":5190:5210   */\n      tag_224\n        /* \"#utility.yul\":5208:5209   */\n      dup3\n        /* \"#utility.yul\":5190:5210   */\n      tag_146\n      jump\t// in\n    tag_224:\n        /* \"#utility.yul\":5185:5210   */\n      swap2\n      pop\n        /* \"#utility.yul\":5224:5244   */\n      tag_225\n        /* \"#utility.yul\":5242:5243   */\n      dup4\n        /* \"#utility.yul\":5224:5244   */\n      tag_146\n      jump\t// in\n    tag_225:\n        /* \"#utility.yul\":5219:5244   */\n      swap3\n      pop\n        /* \"#utility.yul\":5263:5264   */\n      dup3\n        /* \"#utility.yul\":5253:5288   */\n      tag_226\n      jumpi\n        /* \"#utility.yul\":5268:5286   */\n      tag_227\n      tag_164\n      jump\t// in\n    tag_227:\n        /* \"#utility.yul\":5253:5288   */\n    tag_226:\n        /* \"#utility.yul\":5309:5310   */\n      dup3\n        /* \"#utility.yul\":5306:5307   */\n      dup3\n        /* \"#utility.yul\":5302:5311   */\n      mod\n        /* \"#utility.yul\":5297:5311   */\n      swap1\n      pop\n        /* \"#utility.yul\":5141:5317   */\n      swap3\n      swap2\n      pop\n      pop\n      jump\t// out\n        /* \"#utility.yul\":5323:5508   */\n    tag_133:\n        /* \"#utility.yul\":5363:5364   */\n      0x00\n        /* \"#utility.yul\":5380:5400   */\n      tag_229\n        /* \"#utility.yul\":5398:5399   */\n      dup3\n        /* \"#utility.yul\":5380:5400   */\n      tag_146\n      jump\t// in\n    tag_229:\n        /* \"#utility.yul\":5375:5400   */\n      swap2\n      pop\n        /* \"#utility.yul\":5414:5434   */\n      tag_230\n        /* \"#utility.yul\":5432:5433   */\n      dup4\n        /* \"#utility.yul\":5414:5434   */\n      tag_146\n      jump\t// in\n    tag_230:\n        /* \"#utility.yul\":5409:5434   */\n      swap3\n      pop\n        /* \"#utility.yul\":5453:5454   */\n      dup3\n        /* \"#utility.yul\":5443:5478   */\n      tag_231\n      jumpi\n        /* \"#utility.yul\":5458:5476   */\n      tag_232\n      tag_164\n      jump\t// in\n    tag_232:\n        /* \"#utility.yul\":5443:5478   */\n    tag_231:\n        /* \"#utility.yul\":5500:5501   */\n      dup3\n        /* \"#utility.yul\":5497:5498   */\n      dup3\n        /* \"#utility.yul\":5493:5502   */\n      div\n        /* \"#utility.yul\":5488:5502   */\n      swap1\n      pop\n        /* \"#utility.yul\":5323:5508   */\n      swap3\n      swap2\n      pop\n      pop\n      jump\t// out\n\n    auxdata: 0xa2646970667358221220e28ad9027212cf7728d8491f32fc568d3b7f9ca8aee11cdcb664a00f3c25fabe64736f6c634300081a0033\n}\n",
				"bytecode": {
					"linkReferences": {},
					"object": "60806040525f80555f6001555f6005556040518060800160405280735b38da6a701c568545dcfcb03fcb875f56beddc473ffffffffffffffffffffffffffffffffffffffff1673ffffffffffffffffffffffffffffffffffffffff16815260200173ab8483f64d9c6d1ecf9b849ae677dd3315835cb273ffffffffffffffffffffffffffffffffffffffff1673ffffffffffffffffffffffffffffffffffffffff168152602001734b20993bc481177ec7e8f571cecae8a9e22c02db73ffffffffffffffffffffffffffffffffffffffff1673ffffffffffffffffffffffffffffffffffffffff1681526020017378731d3ca6b7e34ac0f824c42a7cc18a495cabab73ffffffffffffffffffffffffffffffffffffffff1673ffffffffffffffffffffffffffffffffffffffff168152506006906004610140929190610152565b5034801561014c575f80fd5b506101e9565b82600481019282156101bd579160200282015b828111156101bc578251825f6101000a81548173ffffffffffffffffffffffffffffffffffffffff021916908373ffffffffffffffffffffffffffffffffffffffff16021790555091602001919060010190610165565b5b5090506101ca91906101ce565b5090565b5b808211156101e5575f815f9055506001016101cf565b5090565b610e16806101f65f395ff3fe608060405260043610610085575f3560e01c806390d5d0c31161005857806390d5d0c314610123578063a040478d1461014d578063ce6e1c4e14610189578063eabff710146101b1578063f71d96cb146101ed57610085565b8063086f781514610089578063190cf745146100b3578063228cb733146100ef57806327b5db8a14610119575b5f80fd5b348015610094575f80fd5b5061009d610229565b6040516100aa9190610ab5565b60405180910390f35b3480156100be575f80fd5b506100d960048036038101906100d49190610b2c565b61022f565b6040516100e69190610b71565b60405180910390f35b3480156100fa575f80fd5b5061010361024c565b6040516101109190610ab5565b60405180910390f35b610121610252565b005b34801561012e575f80fd5b5061013761049e565b6040516101449190610ab5565b60405180910390f35b348015610158575f80fd5b50610173600480360381019061016e9190610b2c565b6104a3565b6040516101809190610ab5565b60405180910390f35b348015610194575f80fd5b506101af60048036038101906101aa9190610bb4565b6104b8565b005b3480156101bc575f80fd5b506101d760048036038101906101d29190610bb4565b6106dc565b6040516101e49190610bee565b60405180910390f35b3480156101f8575f80fd5b50610213600480360381019061020e9190610bb4565b610710565b6040516102209190610bee565b60405180910390f35b60055481565b6003602052805f5260405f205f915054906101000a900460ff1681565b60015481565b5f805b60048110156102db576006816004811061027257610271610c07565b5b015f9054906101000a900473ffffffffffffffffffffffffffffffffffffffff1673ffffffffffffffffffffffffffffffffffffffff163373ffffffffffffffffffffffffffffffffffffffff16036102ce57600191506102db565b8080600101915050610255565b508061031c576040517f08c379a000000000000000000000000000000000000000000000000000000000815260040161031390610c8e565b60405180910390fd5b60025f5410610329575f80fd5b5f805411156103a55760045f8154811061034657610345610c07565b5b905f5260205f20015f9054906101000a900473ffffffffffffffffffffffffffffffffffffffff1673ffffffffffffffffffffffffffffffffffffffff163373ffffffffffffffffffffffffffffffffffffffff16036103a4575f80fd5b5b670de0b6b3a764000034146103b8575f80fd5b3460015f8282546103c99190610cd9565b92505081905550600160035f3373ffffffffffffffffffffffffffffffffffffffff1673ffffffffffffffffffffffffffffffffffffffff1681526020019081526020015f205f6101000a81548160ff021916908315150217905550600433908060018154018082558091505060019003905f5260205f20015f9091909190916101000a81548173ffffffffffffffffffffffffffffffffffffffff021916908373ffffffffffffffffffffffffffffffffffffffff1602179055505f8081548092919061049690610d0c565b919050555050565b5f5481565b6002602052805f5260405f205f915090505481565b5f805b600481101561054157600681600481106104d8576104d7610c07565b5b015f9054906101000a900473ffffffffffffffffffffffffffffffffffffffff1673ffffffffffffffffffffffffffffffffffffffff163373ffffffffffffffffffffffffffffffffffffffff16036105345760019150610541565b80806001019150506104bb565b5080610582576040517f08c379a000000000000000000000000000000000000000000000000000000000815260040161057990610c8e565b60405180910390fd5b60025f541461058f575f80fd5b60035f3373ffffffffffffffffffffffffffffffffffffffff1673ffffffffffffffffffffffffffffffffffffffff1681526020019081526020015f205f9054906101000a900460ff166105e1575f80fd5b5f8214806105ef5750600182145b806105fa5750600282145b806106055750600382145b806106105750600482145b610618575f80fd5b8160025f3373ffffffffffffffffffffffffffffffffffffffff1673ffffffffffffffffffffffffffffffffffffffff1681526020019081526020015f20819055505f60035f3373ffffffffffffffffffffffffffffffffffffffff1673ffffffffffffffffffffffffffffffffffffffff1681526020019081526020015f205f6101000a81548160ff02191690831515021790555060055f8154809291906106c090610d0c565b91905055506002600554036106d8576106d761074b565b5b5050565b600681600481106106eb575f80fd5b015f915054906101000a900473ffffffffffffffffffffffffffffffffffffffff1681565b6004818154811061071f575f80fd5b905f5260205f20015f915054906101000a900473ffffffffffffffffffffffffffffffffffffffff1681565b5f60025f60045f8154811061076357610762610c07565b5b905f5260205f20015f9054906101000a900473ffffffffffffffffffffffffffffffffffffffff1673ffffffffffffffffffffffffffffffffffffffff1673ffffffffffffffffffffffffffffffffffffffff1681526020019081526020015f205490505f60025f60046001815481106107e0576107df610c07565b5b905f5260205f20015f9054906101000a900473ffffffffffffffffffffffffffffffffffffffff1673ffffffffffffffffffffffffffffffffffffffff1673ffffffffffffffffffffffffffffffffffffffff1681526020019081526020015f205490505f60045f8154811061085957610858610c07565b5b905f5260205f20015f9054906101000a900473ffffffffffffffffffffffffffffffffffffffff1690505f600460018154811061089957610898610c07565b5b905f5260205f20015f9054906101000a900473ffffffffffffffffffffffffffffffffffffffff1690508260056001866108d39190610cd9565b6108dd9190610d80565b0361092d578073ffffffffffffffffffffffffffffffffffffffff166108fc60015490811502906040515f60405180830381858888f19350505050158015610927573d5f803e3d5ffd5b50610a3d565b83600560018561093d9190610cd9565b6109479190610d80565b03610997578173ffffffffffffffffffffffffffffffffffffffff166108fc60015490811502906040515f60405180830381858888f19350505050158015610991573d5f803e3d5ffd5b50610a3c565b8173ffffffffffffffffffffffffffffffffffffffff166108fc60026001546109c09190610db0565b90811502906040515f60405180830381858888f193505050501580156109e8573d5f803e3d5ffd5b508073ffffffffffffffffffffffffffffffffffffffff166108fc6002600154610a129190610db0565b90811502906040515f60405180830381858888f19350505050158015610a3a573d5f803e3d5ffd5b505b5b60045f610a4a9190610a64565b5f80819055505f6005819055505f60018190555050505050565b5080545f8255905f5260205f2090810190610a7f9190610a82565b50565b5b80821115610a99575f815f905550600101610a83565b5090565b5f819050919050565b610aaf81610a9d565b82525050565b5f602082019050610ac85f830184610aa6565b92915050565b5f80fd5b5f73ffffffffffffffffffffffffffffffffffffffff82169050919050565b5f610afb82610ad2565b9050919050565b610b0b81610af1565b8114610b15575f80fd5b50565b5f81359050610b2681610b02565b92915050565b5f60208284031215610b4157610b40610ace565b5b5f610b4e84828501610b18565b91505092915050565b5f8115159050919050565b610b6b81610b57565b82525050565b5f602082019050610b845f830184610b62565b92915050565b610b9381610a9d565b8114610b9d575f80fd5b50565b5f81359050610bae81610b8a565b92915050565b5f60208284031215610bc957610bc8610ace565b5b5f610bd684828501610ba0565b91505092915050565b610be881610af1565b82525050565b5f602082019050610c015f830184610bdf565b92915050565b7f4e487b71000000000000000000000000000000000000000000000000000000005f52603260045260245ffd5b5f82825260208201905092915050565b7f4e6f7420616e20616c6c6f77656420706c6179657200000000000000000000005f82015250565b5f610c78601583610c34565b9150610c8382610c44565b602082019050919050565b5f6020820190508181035f830152610ca581610c6c565b9050919050565b7f4e487b71000000000000000000000000000000000000000000000000000000005f52601160045260245ffd5b5f610ce382610a9d565b9150610cee83610a9d565b9250828201905080821115610d0657610d05610cac565b5b92915050565b5f610d1682610a9d565b91507fffffffffffffffffffffffffffffffffffffffffffffffffffffffffffffffff8203610d4857610d47610cac565b5b600182019050919050565b7f4e487b71000000000000000000000000000000000000000000000000000000005f52601260045260245ffd5b5f610d8a82610a9d565b9150610d9583610a9d565b925082610da557610da4610d53565b5b828206905092915050565b5f610dba82610a9d565b9150610dc583610a9d565b925082610dd557610dd4610d53565b5b82820490509291505056fea2646970667358221220e28ad9027212cf7728d8491f32fc568d3b7f9ca8aee11cdcb664a00f3c25fabe64736f6c634300081a0033",
					"opcodes": "PUSH1 0x80 PUSH1 0x40 MSTORE PUSH0 DUP1 SSTORE PUSH0 PUSH1 0x1 SSTORE PUSH0 PUSH1 0x5 SSTORE PUSH1 0x40 MLOAD DUP1 PUSH1 0x80 ADD PUSH1 0x40 MSTORE DUP1 PUSH20 0x5B38DA6A701C568545DCFCB03FCB875F56BEDDC4 PUSH20 0xFFFFFFFFFFFFFFFFFFFFFFFFFFFFFFFFFFFFFFFF AND PUSH20 0xFFFFFFFFFFFFFFFFFFFFFFFFFFFFFFFFFFFFFFFF AND DUP2 MSTORE PUSH1 0x20 ADD PUSH20 0xAB8483F64D9C6D1ECF9B849AE677DD3315835CB2 PUSH20 0xFFFFFFFFFFFFFFFFFFFFFFFFFFFFFFFFFFFFFFFF AND PUSH20 0xFFFFFFFFFFFFFFFFFFFFFFFFFFFFFFFFFFFFFFFF AND DUP2 MSTORE PUSH1 0x20 ADD PUSH20 0x4B20993BC481177EC7E8F571CECAE8A9E22C02DB PUSH20 0xFFFFFFFFFFFFFFFFFFFFFFFFFFFFFFFFFFFFFFFF AND PUSH20 0xFFFFFFFFFFFFFFFFFFFFFFFFFFFFFFFFFFFFFFFF AND DUP2 MSTORE PUSH1 0x20 ADD PUSH20 0x78731D3CA6B7E34AC0F824C42A7CC18A495CABAB PUSH20 0xFFFFFFFFFFFFFFFFFFFFFFFFFFFFFFFFFFFFFFFF AND PUSH20 0xFFFFFFFFFFFFFFFFFFFFFFFFFFFFFFFFFFFFFFFF AND DUP2 MSTORE POP PUSH1 0x6 SWAP1 PUSH1 0x4 PUSH2 0x140 SWAP3 SWAP2 SWAP1 PUSH2 0x152 JUMP JUMPDEST POP CALLVALUE DUP1 ISZERO PUSH2 0x14C JUMPI PUSH0 DUP1 REVERT JUMPDEST POP PUSH2 0x1E9 JUMP JUMPDEST DUP3 PUSH1 0x4 DUP2 ADD SWAP3 DUP3 ISZERO PUSH2 0x1BD JUMPI SWAP2 PUSH1 0x20 MUL DUP3 ADD JUMPDEST DUP3 DUP2 GT ISZERO PUSH2 0x1BC JUMPI DUP3 MLOAD DUP3 PUSH0 PUSH2 0x100 EXP DUP2 SLOAD DUP2 PUSH20 0xFFFFFFFFFFFFFFFFFFFFFFFFFFFFFFFFFFFFFFFF MUL NOT AND SWAP1 DUP4 PUSH20 0xFFFFFFFFFFFFFFFFFFFFFFFFFFFFFFFFFFFFFFFF AND MUL OR SWAP1 SSTORE POP SWAP2 PUSH1 0x20 ADD SWAP2 SWAP1 PUSH1 0x1 ADD SWAP1 PUSH2 0x165 JUMP JUMPDEST JUMPDEST POP SWAP1 POP PUSH2 0x1CA SWAP2 SWAP1 PUSH2 0x1CE JUMP JUMPDEST POP SWAP1 JUMP JUMPDEST JUMPDEST DUP1 DUP3 GT ISZERO PUSH2 0x1E5 JUMPI PUSH0 DUP2 PUSH0 SWAP1 SSTORE POP PUSH1 0x1 ADD PUSH2 0x1CF JUMP JUMPDEST POP SWAP1 JUMP JUMPDEST PUSH2 0xE16 DUP1 PUSH2 0x1F6 PUSH0 CODECOPY PUSH0 RETURN INVALID PUSH1 0x80 PUSH1 0x40 MSTORE PUSH1 0x4 CALLDATASIZE LT PUSH2 0x85 JUMPI PUSH0 CALLDATALOAD PUSH1 0xE0 SHR DUP1 PUSH4 0x90D5D0C3 GT PUSH2 0x58 JUMPI DUP1 PUSH4 0x90D5D0C3 EQ PUSH2 0x123 JUMPI DUP1 PUSH4 0xA040478D EQ PUSH2 0x14D JUMPI DUP1 PUSH4 0xCE6E1C4E EQ PUSH2 0x189 JUMPI DUP1 PUSH4 0xEABFF710 EQ PUSH2 0x1B1 JUMPI DUP1 PUSH4 0xF71D96CB EQ PUSH2 0x1ED JUMPI PUSH2 0x85 JUMP JUMPDEST DUP1 PUSH4 0x86F7815 EQ PUSH2 0x89 JUMPI DUP1 PUSH4 0x190CF745 EQ PUSH2 0xB3 JUMPI DUP1 PUSH4 0x228CB733 EQ PUSH2 0xEF JUMPI DUP1 PUSH4 0x27B5DB8A EQ PUSH2 0x119 JUMPI JUMPDEST PUSH0 DUP1 REVERT JUMPDEST CALLVALUE DUP1 ISZERO PUSH2 0x94 JUMPI PUSH0 DUP1 REVERT JUMPDEST POP PUSH2 0x9D PUSH2 0x229 JUMP JUMPDEST PUSH1 0x40 MLOAD PUSH2 0xAA SWAP2 SWAP1 PUSH2 0xAB5 JUMP JUMPDEST PUSH1 0x40 MLOAD DUP1 SWAP2 SUB SWAP1 RETURN JUMPDEST CALLVALUE DUP1 ISZERO PUSH2 0xBE JUMPI PUSH0 DUP1 REVERT JUMPDEST POP PUSH2 0xD9 PUSH1 0x4 DUP1 CALLDATASIZE SUB DUP2 ADD SWAP1 PUSH2 0xD4 SWAP2 SWAP1 PUSH2 0xB2C JUMP JUMPDEST PUSH2 0x22F JUMP JUMPDEST PUSH1 0x40 MLOAD PUSH2 0xE6 SWAP2 SWAP1 PUSH2 0xB71 JUMP JUMPDEST PUSH1 0x40 MLOAD DUP1 SWAP2 SUB SWAP1 RETURN JUMPDEST CALLVALUE DUP1 ISZERO PUSH2 0xFA JUMPI PUSH0 DUP1 REVERT JUMPDEST POP PUSH2 0x103 PUSH2 0x24C JUMP JUMPDEST PUSH1 0x40 MLOAD PUSH2 0x110 SWAP2 SWAP1 PUSH2 0xAB5 JUMP JUMPDEST PUSH1 0x40 MLOAD DUP1 SWAP2 SUB SWAP1 RETURN JUMPDEST PUSH2 0x121 PUSH2 0x252 JUMP JUMPDEST STOP JUMPDEST CALLVALUE DUP1 ISZERO PUSH2 0x12E JUMPI PUSH0 DUP1 REVERT JUMPDEST POP PUSH2 0x137 PUSH2 0x49E JUMP JUMPDEST PUSH1 0x40 MLOAD PUSH2 0x144 SWAP2 SWAP1 PUSH2 0xAB5 JUMP JUMPDEST PUSH1 0x40 MLOAD DUP1 SWAP2 SUB SWAP1 RETURN JUMPDEST CALLVALUE DUP1 ISZERO PUSH2 0x158 JUMPI PUSH0 DUP1 REVERT JUMPDEST POP PUSH2 0x173 PUSH1 0x4 DUP1 CALLDATASIZE SUB DUP2 ADD SWAP1 PUSH2 0x16E SWAP2 SWAP1 PUSH2 0xB2C JUMP JUMPDEST PUSH2 0x4A3 JUMP JUMPDEST PUSH1 0x40 MLOAD PUSH2 0x180 SWAP2 SWAP1 PUSH2 0xAB5 JUMP JUMPDEST PUSH1 0x40 MLOAD DUP1 SWAP2 SUB SWAP1 RETURN JUMPDEST CALLVALUE DUP1 ISZERO PUSH2 0x194 JUMPI PUSH0 DUP1 REVERT JUMPDEST POP PUSH2 0x1AF PUSH1 0x4 DUP1 CALLDATASIZE SUB DUP2 ADD SWAP1 PUSH2 0x1AA SWAP2 SWAP1 PUSH2 0xBB4 JUMP JUMPDEST PUSH2 0x4B8 JUMP JUMPDEST STOP JUMPDEST CALLVALUE DUP1 ISZERO PUSH2 0x1BC JUMPI PUSH0 DUP1 REVERT JUMPDEST POP PUSH2 0x1D7 PUSH1 0x4 DUP1 CALLDATASIZE SUB DUP2 ADD SWAP1 PUSH2 0x1D2 SWAP2 SWAP1 PUSH2 0xBB4 JUMP JUMPDEST PUSH2 0x6DC JUMP JUMPDEST PUSH1 0x40 MLOAD PUSH2 0x1E4 SWAP2 SWAP1 PUSH2 0xBEE JUMP JUMPDEST PUSH1 0x40 MLOAD DUP1 SWAP2 SUB SWAP1 RETURN JUMPDEST CALLVALUE DUP1 ISZERO PUSH2 0x1F8 JUMPI PUSH0 DUP1 REVERT JUMPDEST POP PUSH2 0x213 PUSH1 0x4 DUP1 CALLDATASIZE SUB DUP2 ADD SWAP1 PUSH2 0x20E SWAP2 SWAP1 PUSH2 0xBB4 JUMP JUMPDEST PUSH2 0x710 JUMP JUMPDEST PUSH1 0x40 MLOAD PUSH2 0x220 SWAP2 SWAP1 PUSH2 0xBEE JUMP JUMPDEST PUSH1 0x40 MLOAD DUP1 SWAP2 SUB SWAP1 RETURN JUMPDEST PUSH1 0x5 SLOAD DUP2 JUMP JUMPDEST PUSH1 0x3 PUSH1 0x20 MSTORE DUP1 PUSH0 MSTORE PUSH1 0x40 PUSH0 KECCAK256 PUSH0 SWAP2 POP SLOAD SWAP1 PUSH2 0x100 EXP SWAP1 DIV PUSH1 0xFF AND DUP2 JUMP JUMPDEST PUSH1 0x1 SLOAD DUP2 JUMP JUMPDEST PUSH0 DUP1 JUMPDEST PUSH1 0x4 DUP2 LT ISZERO PUSH2 0x2DB JUMPI PUSH1 0x6 DUP2 PUSH1 0x4 DUP2 LT PUSH2 0x272 JUMPI PUSH2 0x271 PUSH2 0xC07 JUMP JUMPDEST JUMPDEST ADD PUSH0 SWAP1 SLOAD SWAP1 PUSH2 0x100 EXP SWAP1 DIV PUSH20 0xFFFFFFFFFFFFFFFFFFFFFFFFFFFFFFFFFFFFFFFF AND PUSH20 0xFFFFFFFFFFFFFFFFFFFFFFFFFFFFFFFFFFFFFFFF AND CALLER PUSH20 0xFFFFFFFFFFFFFFFFFFFFFFFFFFFFFFFFFFFFFFFF AND SUB PUSH2 0x2CE JUMPI PUSH1 0x1 SWAP2 POP PUSH2 0x2DB JUMP JUMPDEST DUP1 DUP1 PUSH1 0x1 ADD SWAP2 POP POP PUSH2 0x255 JUMP JUMPDEST POP DUP1 PUSH2 0x31C JUMPI PUSH1 0x40 MLOAD PUSH32 0x8C379A000000000000000000000000000000000000000000000000000000000 DUP2 MSTORE PUSH1 0x4 ADD PUSH2 0x313 SWAP1 PUSH2 0xC8E JUMP JUMPDEST PUSH1 0x40 MLOAD DUP1 SWAP2 SUB SWAP1 REVERT JUMPDEST PUSH1 0x2 PUSH0 SLOAD LT PUSH2 0x329 JUMPI PUSH0 DUP1 REVERT JUMPDEST PUSH0 DUP1 SLOAD GT ISZERO PUSH2 0x3A5 JUMPI PUSH1 0x4 PUSH0 DUP2 SLOAD DUP2 LT PUSH2 0x346 JUMPI PUSH2 0x345 PUSH2 0xC07 JUMP JUMPDEST JUMPDEST SWAP1 PUSH0 MSTORE PUSH1 0x20 PUSH0 KECCAK256 ADD PUSH0 SWAP1 SLOAD SWAP1 PUSH2 0x100 EXP SWAP1 DIV PUSH20 0xFFFFFFFFFFFFFFFFFFFFFFFFFFFFFFFFFFFFFFFF AND PUSH20 0xFFFFFFFFFFFFFFFFFFFFFFFFFFFFFFFFFFFFFFFF AND CALLER PUSH20 0xFFFFFFFFFFFFFFFFFFFFFFFFFFFFFFFFFFFFFFFF AND SUB PUSH2 0x3A4 JUMPI PUSH0 DUP1 REVERT JUMPDEST JUMPDEST PUSH8 0xDE0B6B3A7640000 CALLVALUE EQ PUSH2 0x3B8 JUMPI PUSH0 DUP1 REVERT JUMPDEST CALLVALUE PUSH1 0x1 PUSH0 DUP3 DUP3 SLOAD PUSH2 0x3C9 SWAP2 SWAP1 PUSH2 0xCD9 JUMP JUMPDEST SWAP3 POP POP DUP2 SWAP1 SSTORE POP PUSH1 0x1 PUSH1 0x3 PUSH0 CALLER PUSH20 0xFFFFFFFFFFFFFFFFFFFFFFFFFFFFFFFFFFFFFFFF AND PUSH20 0xFFFFFFFFFFFFFFFFFFFFFFFFFFFFFFFFFFFFFFFF AND DUP2 MSTORE PUSH1 0x20 ADD SWAP1 DUP2 MSTORE PUSH1 0x20 ADD PUSH0 KECCAK256 PUSH0 PUSH2 0x100 EXP DUP2 SLOAD DUP2 PUSH1 0xFF MUL NOT AND SWAP1 DUP4 ISZERO ISZERO MUL OR SWAP1 SSTORE POP PUSH1 0x4 CALLER SWAP1 DUP1 PUSH1 0x1 DUP2 SLOAD ADD DUP1 DUP3 SSTORE DUP1 SWAP2 POP POP PUSH1 0x1 SWAP1 SUB SWAP1 PUSH0 MSTORE PUSH1 0x20 PUSH0 KECCAK256 ADD PUSH0 SWAP1 SWAP2 SWAP1 SWAP2 SWAP1 SWAP2 PUSH2 0x100 EXP DUP2 SLOAD DUP2 PUSH20 0xFFFFFFFFFFFFFFFFFFFFFFFFFFFFFFFFFFFFFFFF MUL NOT AND SWAP1 DUP4 PUSH20 0xFFFFFFFFFFFFFFFFFFFFFFFFFFFFFFFFFFFFFFFF AND MUL OR SWAP1 SSTORE POP PUSH0 DUP1 DUP2 SLOAD DUP1 SWAP3 SWAP2 SWAP1 PUSH2 0x496 SWAP1 PUSH2 0xD0C JUMP JUMPDEST SWAP2 SWAP1 POP SSTORE POP POP JUMP JUMPDEST PUSH0 SLOAD DUP2 JUMP JUMPDEST PUSH1 0x2 PUSH1 0x20 MSTORE DUP1 PUSH0 MSTORE PUSH1 0x40 PUSH0 KECCAK256 PUSH0 SWAP2 POP SWAP1 POP SLOAD DUP2 JUMP JUMPDEST PUSH0 DUP1 JUMPDEST PUSH1 0x4 DUP2 LT ISZERO PUSH2 0x541 JUMPI PUSH1 0x6 DUP2 PUSH1 0x4 DUP2 LT PUSH2 0x4D8 JUMPI PUSH2 0x4D7 PUSH2 0xC07 JUMP JUMPDEST JUMPDEST ADD PUSH0 SWAP1 SLOAD SWAP1 PUSH2 0x100 EXP SWAP1 DIV PUSH20 0xFFFFFFFFFFFFFFFFFFFFFFFFFFFFFFFFFFFFFFFF AND PUSH20 0xFFFFFFFFFFFFFFFFFFFFFFFFFFFFFFFFFFFFFFFF AND CALLER PUSH20 0xFFFFFFFFFFFFFFFFFFFFFFFFFFFFFFFFFFFFFFFF AND SUB PUSH2 0x534 JUMPI PUSH1 0x1 SWAP2 POP PUSH2 0x541 JUMP JUMPDEST DUP1 DUP1 PUSH1 0x1 ADD SWAP2 POP POP PUSH2 0x4BB JUMP JUMPDEST POP DUP1 PUSH2 0x582 JUMPI PUSH1 0x40 MLOAD PUSH32 0x8C379A000000000000000000000000000000000000000000000000000000000 DUP2 MSTORE PUSH1 0x4 ADD PUSH2 0x579 SWAP1 PUSH2 0xC8E JUMP JUMPDEST PUSH1 0x40 MLOAD DUP1 SWAP2 SUB SWAP1 REVERT JUMPDEST PUSH1 0x2 PUSH0 SLOAD EQ PUSH2 0x58F JUMPI PUSH0 DUP1 REVERT JUMPDEST PUSH1 0x3 PUSH0 CALLER PUSH20 0xFFFFFFFFFFFFFFFFFFFFFFFFFFFFFFFFFFFFFFFF AND PUSH20 0xFFFFFFFFFFFFFFFFFFFFFFFFFFFFFFFFFFFFFFFF AND DUP2 MSTORE PUSH1 0x20 ADD SWAP1 DUP2 MSTORE PUSH1 0x20 ADD PUSH0 KECCAK256 PUSH0 SWAP1 SLOAD SWAP1 PUSH2 0x100 EXP SWAP1 DIV PUSH1 0xFF AND PUSH2 0x5E1 JUMPI PUSH0 DUP1 REVERT JUMPDEST PUSH0 DUP3 EQ DUP1 PUSH2 0x5EF JUMPI POP PUSH1 0x1 DUP3 EQ JUMPDEST DUP1 PUSH2 0x5FA JUMPI POP PUSH1 0x2 DUP3 EQ JUMPDEST DUP1 PUSH2 0x605 JUMPI POP PUSH1 0x3 DUP3 EQ JUMPDEST DUP1 PUSH2 0x610 JUMPI POP PUSH1 0x4 DUP3 EQ JUMPDEST PUSH2 0x618 JUMPI PUSH0 DUP1 REVERT JUMPDEST DUP2 PUSH1 0x2 PUSH0 CALLER PUSH20 0xFFFFFFFFFFFFFFFFFFFFFFFFFFFFFFFFFFFFFFFF AND PUSH20 0xFFFFFFFFFFFFFFFFFFFFFFFFFFFFFFFFFFFFFFFF AND DUP2 MSTORE PUSH1 0x20 ADD SWAP1 DUP2 MSTORE PUSH1 0x20 ADD PUSH0 KECCAK256 DUP2 SWAP1 SSTORE POP PUSH0 PUSH1 0x3 PUSH0 CALLER PUSH20 0xFFFFFFFFFFFFFFFFFFFFFFFFFFFFFFFFFFFFFFFF AND PUSH20 0xFFFFFFFFFFFFFFFFFFFFFFFFFFFFFFFFFFFFFFFF AND DUP2 MSTORE PUSH1 0x20 ADD SWAP1 DUP2 MSTORE PUSH1 0x20 ADD PUSH0 KECCAK256 PUSH0 PUSH2 0x100 EXP DUP2 SLOAD DUP2 PUSH1 0xFF MUL NOT AND SWAP1 DUP4 ISZERO ISZERO MUL OR SWAP1 SSTORE POP PUSH1 0x5 PUSH0 DUP2 SLOAD DUP1 SWAP3 SWAP2 SWAP1 PUSH2 0x6C0 SWAP1 PUSH2 0xD0C JUMP JUMPDEST SWAP2 SWAP1 POP SSTORE POP PUSH1 0x2 PUSH1 0x5 SLOAD SUB PUSH2 0x6D8 JUMPI PUSH2 0x6D7 PUSH2 0x74B JUMP JUMPDEST JUMPDEST POP POP JUMP JUMPDEST PUSH1 0x6 DUP2 PUSH1 0x4 DUP2 LT PUSH2 0x6EB JUMPI PUSH0 DUP1 REVERT JUMPDEST ADD PUSH0 SWAP2 POP SLOAD SWAP1 PUSH2 0x100 EXP SWAP1 DIV PUSH20 0xFFFFFFFFFFFFFFFFFFFFFFFFFFFFFFFFFFFFFFFF AND DUP2 JUMP JUMPDEST PUSH1 0x4 DUP2 DUP2 SLOAD DUP2 LT PUSH2 0x71F JUMPI PUSH0 DUP1 REVERT JUMPDEST SWAP1 PUSH0 MSTORE PUSH1 0x20 PUSH0 KECCAK256 ADD PUSH0 SWAP2 POP SLOAD SWAP1 PUSH2 0x100 EXP SWAP1 DIV PUSH20 0xFFFFFFFFFFFFFFFFFFFFFFFFFFFFFFFFFFFFFFFF AND DUP2 JUMP JUMPDEST PUSH0 PUSH1 0x2 PUSH0 PUSH1 0x4 PUSH0 DUP2 SLOAD DUP2 LT PUSH2 0x763 JUMPI PUSH2 0x762 PUSH2 0xC07 JUMP JUMPDEST JUMPDEST SWAP1 PUSH0 MSTORE PUSH1 0x20 PUSH0 KECCAK256 ADD PUSH0 SWAP1 SLOAD SWAP1 PUSH2 0x100 EXP SWAP1 DIV PUSH20 0xFFFFFFFFFFFFFFFFFFFFFFFFFFFFFFFFFFFFFFFF AND PUSH20 0xFFFFFFFFFFFFFFFFFFFFFFFFFFFFFFFFFFFFFFFF AND PUSH20 0xFFFFFFFFFFFFFFFFFFFFFFFFFFFFFFFFFFFFFFFF AND DUP2 MSTORE PUSH1 0x20 ADD SWAP1 DUP2 MSTORE PUSH1 0x20 ADD PUSH0 KECCAK256 SLOAD SWAP1 POP PUSH0 PUSH1 0x2 PUSH0 PUSH1 0x4 PUSH1 0x1 DUP2 SLOAD DUP2 LT PUSH2 0x7E0 JUMPI PUSH2 0x7DF PUSH2 0xC07 JUMP JUMPDEST JUMPDEST SWAP1 PUSH0 MSTORE PUSH1 0x20 PUSH0 KECCAK256 ADD PUSH0 SWAP1 SLOAD SWAP1 PUSH2 0x100 EXP SWAP1 DIV PUSH20 0xFFFFFFFFFFFFFFFFFFFFFFFFFFFFFFFFFFFFFFFF AND PUSH20 0xFFFFFFFFFFFFFFFFFFFFFFFFFFFFFFFFFFFFFFFF AND PUSH20 0xFFFFFFFFFFFFFFFFFFFFFFFFFFFFFFFFFFFFFFFF AND DUP2 MSTORE PUSH1 0x20 ADD SWAP1 DUP2 MSTORE PUSH1 0x20 ADD PUSH0 KECCAK256 SLOAD SWAP1 POP PUSH0 PUSH1 0x4 PUSH0 DUP2 SLOAD DUP2 LT PUSH2 0x859 JUMPI PUSH2 0x858 PUSH2 0xC07 JUMP JUMPDEST JUMPDEST SWAP1 PUSH0 MSTORE PUSH1 0x20 PUSH0 KECCAK256 ADD PUSH0 SWAP1 SLOAD SWAP1 PUSH2 0x100 EXP SWAP1 DIV PUSH20 0xFFFFFFFFFFFFFFFFFFFFFFFFFFFFFFFFFFFFFFFF AND SWAP1 POP PUSH0 PUSH1 0x4 PUSH1 0x1 DUP2 SLOAD DUP2 LT PUSH2 0x899 JUMPI PUSH2 0x898 PUSH2 0xC07 JUMP JUMPDEST JUMPDEST SWAP1 PUSH0 MSTORE PUSH1 0x20 PUSH0 KECCAK256 ADD PUSH0 SWAP1 SLOAD SWAP1 PUSH2 0x100 EXP SWAP1 DIV PUSH20 0xFFFFFFFFFFFFFFFFFFFFFFFFFFFFFFFFFFFFFFFF AND SWAP1 POP DUP3 PUSH1 0x5 PUSH1 0x1 DUP7 PUSH2 0x8D3 SWAP2 SWAP1 PUSH2 0xCD9 JUMP JUMPDEST PUSH2 0x8DD SWAP2 SWAP1 PUSH2 0xD80 JUMP JUMPDEST SUB PUSH2 0x92D JUMPI DUP1 PUSH20 0xFFFFFFFFFFFFFFFFFFFFFFFFFFFFFFFFFFFFFFFF AND PUSH2 0x8FC PUSH1 0x1 SLOAD SWAP1 DUP2 ISZERO MUL SWAP1 PUSH1 0x40 MLOAD PUSH0 PUSH1 0x40 MLOAD DUP1 DUP4 SUB DUP2 DUP6 DUP9 DUP9 CALL SWAP4 POP POP POP POP ISZERO DUP1 ISZERO PUSH2 0x927 JUMPI RETURNDATASIZE PUSH0 DUP1 RETURNDATACOPY RETURNDATASIZE PUSH0 REVERT JUMPDEST POP PUSH2 0xA3D JUMP JUMPDEST DUP4 PUSH1 0x5 PUSH1 0x1 DUP6 PUSH2 0x93D SWAP2 SWAP1 PUSH2 0xCD9 JUMP JUMPDEST PUSH2 0x947 SWAP2 SWAP1 PUSH2 0xD80 JUMP JUMPDEST SUB PUSH2 0x997 JUMPI DUP2 PUSH20 0xFFFFFFFFFFFFFFFFFFFFFFFFFFFFFFFFFFFFFFFF AND PUSH2 0x8FC PUSH1 0x1 SLOAD SWAP1 DUP2 ISZERO MUL SWAP1 PUSH1 0x40 MLOAD PUSH0 PUSH1 0x40 MLOAD DUP1 DUP4 SUB DUP2 DUP6 DUP9 DUP9 CALL SWAP4 POP POP POP POP ISZERO DUP1 ISZERO PUSH2 0x991 JUMPI RETURNDATASIZE PUSH0 DUP1 RETURNDATACOPY RETURNDATASIZE PUSH0 REVERT JUMPDEST POP PUSH2 0xA3C JUMP JUMPDEST DUP2 PUSH20 0xFFFFFFFFFFFFFFFFFFFFFFFFFFFFFFFFFFFFFFFF AND PUSH2 0x8FC PUSH1 0x2 PUSH1 0x1 SLOAD PUSH2 0x9C0 SWAP2 SWAP1 PUSH2 0xDB0 JUMP JUMPDEST SWAP1 DUP2 ISZERO MUL SWAP1 PUSH1 0x40 MLOAD PUSH0 PUSH1 0x40 MLOAD DUP1 DUP4 SUB DUP2 DUP6 DUP9 DUP9 CALL SWAP4 POP POP POP POP ISZERO DUP1 ISZERO PUSH2 0x9E8 JUMPI RETURNDATASIZE PUSH0 DUP1 RETURNDATACOPY RETURNDATASIZE PUSH0 REVERT JUMPDEST POP DUP1 PUSH20 0xFFFFFFFFFFFFFFFFFFFFFFFFFFFFFFFFFFFFFFFF AND PUSH2 0x8FC PUSH1 0x2 PUSH1 0x1 SLOAD PUSH2 0xA12 SWAP2 SWAP1 PUSH2 0xDB0 JUMP JUMPDEST SWAP1 DUP2 ISZERO MUL SWAP1 PUSH1 0x40 MLOAD PUSH0 PUSH1 0x40 MLOAD DUP1 DUP4 SUB DUP2 DUP6 DUP9 DUP9 CALL SWAP4 POP POP POP POP ISZERO DUP1 ISZERO PUSH2 0xA3A JUMPI RETURNDATASIZE PUSH0 DUP1 RETURNDATACOPY RETURNDATASIZE PUSH0 REVERT JUMPDEST POP JUMPDEST JUMPDEST PUSH1 0x4 PUSH0 PUSH2 0xA4A SWAP2 SWAP1 PUSH2 0xA64 JUMP JUMPDEST PUSH0 DUP1 DUP2 SWAP1 SSTORE POP PUSH0 PUSH1 0x5 DUP2 SWAP1 SSTORE POP PUSH0 PUSH1 0x1 DUP2 SWAP1 SSTORE POP POP POP POP POP JUMP JUMPDEST POP DUP1 SLOAD PUSH0 DUP3 SSTORE SWAP1 PUSH0 MSTORE PUSH1 0x20 PUSH0 KECCAK256 SWAP1 DUP2 ADD SWAP1 PUSH2 0xA7F SWAP2 SWAP1 PUSH2 0xA82 JUMP JUMPDEST POP JUMP JUMPDEST JUMPDEST DUP1 DUP3 GT ISZERO PUSH2 0xA99 JUMPI PUSH0 DUP2 PUSH0 SWAP1 SSTORE POP PUSH1 0x1 ADD PUSH2 0xA83 JUMP JUMPDEST POP SWAP1 JUMP JUMPDEST PUSH0 DUP2 SWAP1 POP SWAP2 SWAP1 POP JUMP JUMPDEST PUSH2 0xAAF DUP2 PUSH2 0xA9D JUMP JUMPDEST DUP3 MSTORE POP POP JUMP JUMPDEST PUSH0 PUSH1 0x20 DUP3 ADD SWAP1 POP PUSH2 0xAC8 PUSH0 DUP4 ADD DUP5 PUSH2 0xAA6 JUMP JUMPDEST SWAP3 SWAP2 POP POP JUMP JUMPDEST PUSH0 DUP1 REVERT JUMPDEST PUSH0 PUSH20 0xFFFFFFFFFFFFFFFFFFFFFFFFFFFFFFFFFFFFFFFF DUP3 AND SWAP1 POP SWAP2 SWAP1 POP JUMP JUMPDEST PUSH0 PUSH2 0xAFB DUP3 PUSH2 0xAD2 JUMP JUMPDEST SWAP1 POP SWAP2 SWAP1 POP JUMP JUMPDEST PUSH2 0xB0B DUP2 PUSH2 0xAF1 JUMP JUMPDEST DUP2 EQ PUSH2 0xB15 JUMPI PUSH0 DUP1 REVERT JUMPDEST POP JUMP JUMPDEST PUSH0 DUP2 CALLDATALOAD SWAP1 POP PUSH2 0xB26 DUP2 PUSH2 0xB02 JUMP JUMPDEST SWAP3 SWAP2 POP POP JUMP JUMPDEST PUSH0 PUSH1 0x20 DUP3 DUP5 SUB SLT ISZERO PUSH2 0xB41 JUMPI PUSH2 0xB40 PUSH2 0xACE JUMP JUMPDEST JUMPDEST PUSH0 PUSH2 0xB4E DUP5 DUP3 DUP6 ADD PUSH2 0xB18 JUMP JUMPDEST SWAP2 POP POP SWAP3 SWAP2 POP POP JUMP JUMPDEST PUSH0 DUP2 ISZERO ISZERO SWAP1 POP SWAP2 SWAP1 POP JUMP JUMPDEST PUSH2 0xB6B DUP2 PUSH2 0xB57 JUMP JUMPDEST DUP3 MSTORE POP POP JUMP JUMPDEST PUSH0 PUSH1 0x20 DUP3 ADD SWAP1 POP PUSH2 0xB84 PUSH0 DUP4 ADD DUP5 PUSH2 0xB62 JUMP JUMPDEST SWAP3 SWAP2 POP POP JUMP JUMPDEST PUSH2 0xB93 DUP2 PUSH2 0xA9D JUMP JUMPDEST DUP2 EQ PUSH2 0xB9D JUMPI PUSH0 DUP1 REVERT JUMPDEST POP JUMP JUMPDEST PUSH0 DUP2 CALLDATALOAD SWAP1 POP PUSH2 0xBAE DUP2 PUSH2 0xB8A JUMP JUMPDEST SWAP3 SWAP2 POP POP JUMP JUMPDEST PUSH0 PUSH1 0x20 DUP3 DUP5 SUB SLT ISZERO PUSH2 0xBC9 JUMPI PUSH2 0xBC8 PUSH2 0xACE JUMP JUMPDEST JUMPDEST PUSH0 PUSH2 0xBD6 DUP5 DUP3 DUP6 ADD PUSH2 0xBA0 JUMP JUMPDEST SWAP2 POP POP SWAP3 SWAP2 POP POP JUMP JUMPDEST PUSH2 0xBE8 DUP2 PUSH2 0xAF1 JUMP JUMPDEST DUP3 MSTORE POP POP JUMP JUMPDEST PUSH0 PUSH1 0x20 DUP3 ADD SWAP1 POP PUSH2 0xC01 PUSH0 DUP4 ADD DUP5 PUSH2 0xBDF JUMP JUMPDEST SWAP3 SWAP2 POP POP JUMP JUMPDEST PUSH32 0x4E487B7100000000000000000000000000000000000000000000000000000000 PUSH0 MSTORE PUSH1 0x32 PUSH1 0x4 MSTORE PUSH1 0x24 PUSH0 REVERT JUMPDEST PUSH0 DUP3 DUP3 MSTORE PUSH1 0x20 DUP3 ADD SWAP1 POP SWAP3 SWAP2 POP POP JUMP JUMPDEST PUSH32 0x4E6F7420616E20616C6C6F77656420706C617965720000000000000000000000 PUSH0 DUP3 ADD MSTORE POP JUMP JUMPDEST PUSH0 PUSH2 0xC78 PUSH1 0x15 DUP4 PUSH2 0xC34 JUMP JUMPDEST SWAP2 POP PUSH2 0xC83 DUP3 PUSH2 0xC44 JUMP JUMPDEST PUSH1 0x20 DUP3 ADD SWAP1 POP SWAP2 SWAP1 POP JUMP JUMPDEST PUSH0 PUSH1 0x20 DUP3 ADD SWAP1 POP DUP2 DUP2 SUB PUSH0 DUP4 ADD MSTORE PUSH2 0xCA5 DUP2 PUSH2 0xC6C JUMP JUMPDEST SWAP1 POP SWAP2 SWAP1 POP JUMP JUMPDEST PUSH32 0x4E487B7100000000000000000000000000000000000000000000000000000000 PUSH0 MSTORE PUSH1 0x11 PUSH1 0x4 MSTORE PUSH1 0x24 PUSH0 REVERT JUMPDEST PUSH0 PUSH2 0xCE3 DUP3 PUSH2 0xA9D JUMP JUMPDEST SWAP2 POP PUSH2 0xCEE DUP4 PUSH2 0xA9D JUMP JUMPDEST SWAP3 POP DUP3 DUP3 ADD SWAP1 POP DUP1 DUP3 GT ISZERO PUSH2 0xD06 JUMPI PUSH2 0xD05 PUSH2 0xCAC JUMP JUMPDEST JUMPDEST SWAP3 SWAP2 POP POP JUMP JUMPDEST PUSH0 PUSH2 0xD16 DUP3 PUSH2 0xA9D JUMP JUMPDEST SWAP2 POP PUSH32 0xFFFFFFFFFFFFFFFFFFFFFFFFFFFFFFFFFFFFFFFFFFFFFFFFFFFFFFFFFFFFFFFF DUP3 SUB PUSH2 0xD48 JUMPI PUSH2 0xD47 PUSH2 0xCAC JUMP JUMPDEST JUMPDEST PUSH1 0x1 DUP3 ADD SWAP1 POP SWAP2 SWAP1 POP JUMP JUMPDEST PUSH32 0x4E487B7100000000000000000000000000000000000000000000000000000000 PUSH0 MSTORE PUSH1 0x12 PUSH1 0x4 MSTORE PUSH1 0x24 PUSH0 REVERT JUMPDEST PUSH0 PUSH2 0xD8A DUP3 PUSH2 0xA9D JUMP JUMPDEST SWAP2 POP PUSH2 0xD95 DUP4 PUSH2 0xA9D JUMP JUMPDEST SWAP3 POP DUP3 PUSH2 0xDA5 JUMPI PUSH2 0xDA4 PUSH2 0xD53 JUMP JUMPDEST JUMPDEST DUP3 DUP3 MOD SWAP1 POP SWAP3 SWAP2 POP POP JUMP JUMPDEST PUSH0 PUSH2 0xDBA DUP3 PUSH2 0xA9D JUMP JUMPDEST SWAP2 POP PUSH2 0xDC5 DUP4 PUSH2 0xA9D JUMP JUMPDEST SWAP3 POP DUP3 PUSH2 0xDD5 JUMPI PUSH2 0xDD4 PUSH2 0xD53 JUMP JUMPDEST JUMPDEST DUP3 DUP3 DIV SWAP1 POP SWAP3 SWAP2 POP POP JUMP INVALID LOG2 PUSH5 0x6970667358 0x22 SLT KECCAK256 0xE2 DUP11 0xD9 MUL PUSH19 0x12CF7728D8491F32FC568D3B7F9CA8AEE11CDC 0xB6 PUSH5 0xA00F3C25FA 0xBE PUSH5 0x736F6C6343 STOP ADDMOD BYTE STOP CALLER "
				},
				"gasEstimates": {
					"creation": {
						"codeDepositCost": "721200",
						"executionCost": "infinite",
						"totalCost": "infinite"
					},
					"external": {
						"addPlayer()": "infinite",
						"allowedPlayers(uint256)": "2861",
						"input(uint256)": "infinite",
						"numInput()": "2426",
						"numPlayer()": "2424",
						"player_choice(address)": "2824",
						"player_not_played(address)": "2856",
						"players(uint256)": "5032",
						"reward()": "2470"
					},
					"internal": {
						"_checkWinnerAndPay()": "infinite"
					}
				},
				"methodIdentifiers": {
					"addPlayer()": "27b5db8a",
					"allowedPlayers(uint256)": "eabff710",
					"input(uint256)": "ce6e1c4e",
					"numInput()": "086f7815",
					"numPlayer()": "90d5d0c3",
					"player_choice(address)": "a040478d",
					"player_not_played(address)": "190cf745",
					"players(uint256)": "f71d96cb",
					"reward()": "228cb733"
				}
			},
			"storageLayout": {
				"storage": [
					{
						"astId": 4,
						"contract": "RPS.sol:RPS",
						"label": "numPlayer",
						"offset": 0,
						"slot": "0",
						"type": "t_uint256"
					},
					{
						"astId": 7,
						"contract": "RPS.sol:RPS",
						"label": "reward",
						"offset": 0,
						"slot": "1",
						"type": "t_uint256"
					},
					{
						"astId": 11,
						"contract": "RPS.sol:RPS",
						"label": "player_choice",
						"offset": 0,
						"slot": "2",
						"type": "t_mapping(t_address,t_uint256)"
					},
					{
						"astId": 15,
						"contract": "RPS.sol:RPS",
						"label": "player_not_played",
						"offset": 0,
						"slot": "3",
						"type": "t_mapping(t_address,t_bool)"
					},
					{
						"astId": 18,
						"contract": "RPS.sol:RPS",
						"label": "players",
						"offset": 0,
						"slot": "4",
						"type": "t_array(t_address)dyn_storage"
					},
					{
						"astId": 21,
						"contract": "RPS.sol:RPS",
						"label": "numInput",
						"offset": 0,
						"slot": "5",
						"type": "t_uint256"
					},
					{
						"astId": 30,
						"contract": "RPS.sol:RPS",
						"label": "allowedPlayers",
						"offset": 0,
						"slot": "6",
						"type": "t_array(t_address)4_storage"
					}
				],
				"types": {
					"t_address": {
						"encoding": "inplace",
						"label": "address",
						"numberOfBytes": "20"
					},
					"t_array(t_address)4_storage": {
						"base": "t_address",
						"encoding": "inplace",
						"label": "address[4]",
						"numberOfBytes": "128"
					},
					"t_array(t_address)dyn_storage": {
						"base": "t_address",
						"encoding": "dynamic_array",
						"label": "address[]",
						"numberOfBytes": "32"
					},
					"t_bool": {
						"encoding": "inplace",
						"label": "bool",
						"numberOfBytes": "1"
					},
					"t_mapping(t_address,t_bool)": {
						"encoding": "mapping",
						"key": "t_address",
						"label": "mapping(address => bool)",
						"numberOfBytes": "32",
						"value": "t_bool"
					},
					"t_mapping(t_address,t_uint256)": {
						"encoding": "mapping",
						"key": "t_address",
						"label": "mapping(address => uint256)",
						"numberOfBytes": "32",
						"value": "t_uint256"
					},
					"t_uint256": {
						"encoding": "inplace",
						"label": "uint256",
						"numberOfBytes": "32"
					}
				}
			},
			"userdoc": {
				"kind": "user",
				"methods": {},
				"version": 1
			}
		}
	}
}